{
  "_format": "hh-sol-artifact-1",
  "contractName": "DreadfulzStaking",
  "sourceName": "contracts/DreadfulzStaking.sol",
  "abi": [
    {
      "inputs": [
        {
          "internalType": "contract IERC20",
          "name": "_rewardsToken",
          "type": "address"
        },
        {
          "internalType": "contract DreadfulzNFT",
          "name": "_dreadfulzNFT",
          "type": "address"
        }
      ],
      "stateMutability": "nonpayable",
      "type": "constructor"
    },
    {
      "anonymous": false,
      "inputs": [
        {
          "indexed": false,
          "internalType": "bool",
          "name": "status",
          "type": "bool"
        }
      ],
      "name": "ClaimableStatusUpdated",
      "type": "event"
    },
    {
      "anonymous": false,
      "inputs": [
        {
          "indexed": true,
          "internalType": "address",
          "name": "user",
          "type": "address"
        },
        {
          "indexed": false,
          "internalType": "uint256",
          "name": "tokenId",
          "type": "uint256"
        }
      ],
      "name": "EmergencyUnstake",
      "type": "event"
    },
    {
      "anonymous": false,
      "inputs": [
        {
          "indexed": true,
          "internalType": "address",
          "name": "previousOwner",
          "type": "address"
        },
        {
          "indexed": true,
          "internalType": "address",
          "name": "newOwner",
          "type": "address"
        }
      ],
      "name": "OwnershipTransferred",
      "type": "event"
    },
    {
      "anonymous": false,
      "inputs": [
        {
          "indexed": true,
          "internalType": "address",
          "name": "user",
          "type": "address"
        },
        {
          "indexed": false,
          "internalType": "uint256",
          "name": "reward",
          "type": "uint256"
        }
      ],
      "name": "RewardPaid",
      "type": "event"
    },
    {
      "anonymous": false,
      "inputs": [
        {
          "indexed": false,
          "internalType": "address",
          "name": "owner",
          "type": "address"
        },
        {
          "indexed": false,
          "internalType": "uint256",
          "name": "amount",
          "type": "uint256"
        }
      ],
      "name": "Staked",
      "type": "event"
    },
    {
      "anonymous": false,
      "inputs": [
        {
          "indexed": false,
          "internalType": "address",
          "name": "owner",
          "type": "address"
        },
        {
          "indexed": false,
          "internalType": "uint256",
          "name": "amount",
          "type": "uint256"
        }
      ],
      "name": "Unstaked",
      "type": "event"
    },
    {
      "inputs": [
        {
          "internalType": "address",
          "name": "_user",
          "type": "address"
        }
      ],
      "name": "claimReward",
      "outputs": [],
      "stateMutability": "nonpayable",
      "type": "function"
    },
    {
      "inputs": [],
      "name": "dreadfulzNFT",
      "outputs": [
        {
          "internalType": "contract DreadfulzNFT",
          "name": "",
          "type": "address"
        }
      ],
      "stateMutability": "view",
      "type": "function"
    },
    {
      "inputs": [
        {
          "internalType": "uint256",
          "name": "_tokenId",
          "type": "uint256"
        }
      ],
      "name": "emergencyUnstake",
      "outputs": [],
      "stateMutability": "nonpayable",
      "type": "function"
    },
    {
      "inputs": [
        {
          "internalType": "address",
          "name": "_user",
          "type": "address"
        }
      ],
      "name": "getStakedTokens",
      "outputs": [
        {
          "internalType": "uint256[]",
          "name": "tokenIds",
          "type": "uint256[]"
        }
      ],
      "stateMutability": "view",
      "type": "function"
    },
    {
      "inputs": [
        {
          "internalType": "address",
          "name": "",
          "type": "address"
        },
        {
          "internalType": "address",
          "name": "",
          "type": "address"
        },
        {
          "internalType": "uint256",
          "name": "",
          "type": "uint256"
        },
        {
          "internalType": "bytes",
          "name": "data",
          "type": "bytes"
        }
      ],
      "name": "onERC721Received",
      "outputs": [
        {
          "internalType": "bytes4",
          "name": "",
          "type": "bytes4"
        }
      ],
      "stateMutability": "nonpayable",
      "type": "function"
    },
    {
      "inputs": [],
      "name": "owner",
      "outputs": [
        {
          "internalType": "address",
          "name": "",
          "type": "address"
        }
      ],
      "stateMutability": "view",
      "type": "function"
    },
    {
      "inputs": [],
      "name": "renounceOwnership",
      "outputs": [],
      "stateMutability": "nonpayable",
      "type": "function"
    },
    {
      "inputs": [
        {
          "internalType": "address",
          "name": "_user",
          "type": "address"
        }
      ],
      "name": "rewardsOwing",
      "outputs": [
        {
          "internalType": "uint256",
          "name": "",
          "type": "uint256"
        }
      ],
      "stateMutability": "view",
      "type": "function"
    },
    {
      "inputs": [],
      "name": "rewardsPerTokenPoints",
      "outputs": [
        {
          "internalType": "uint256",
          "name": "",
          "type": "uint256"
        }
      ],
      "stateMutability": "view",
      "type": "function"
    },
    {
      "inputs": [],
      "name": "rewardsToken",
      "outputs": [
        {
          "internalType": "contract IERC20",
          "name": "",
          "type": "address"
        }
      ],
      "stateMutability": "view",
      "type": "function"
    },
    {
      "inputs": [
        {
          "internalType": "bool",
          "name": "_enabled",
          "type": "bool"
        }
      ],
      "name": "setTokensClaimable",
      "outputs": [],
      "stateMutability": "nonpayable",
      "type": "function"
    },
    {
      "inputs": [
        {
          "internalType": "uint256",
          "name": "tokenId",
          "type": "uint256"
        }
      ],
      "name": "stake",
      "outputs": [],
      "stateMutability": "nonpayable",
      "type": "function"
    },
    {
      "inputs": [],
      "name": "stakeAll",
      "outputs": [],
      "stateMutability": "nonpayable",
      "type": "function"
    },
    {
      "inputs": [
        {
          "internalType": "uint256[]",
          "name": "tokenIds",
          "type": "uint256[]"
        }
      ],
      "name": "stakeBatch",
      "outputs": [],
      "stateMutability": "nonpayable",
      "type": "function"
    },
    {
      "inputs": [
        {
          "internalType": "address",
          "name": "",
          "type": "address"
        }
      ],
      "name": "stakers",
      "outputs": [
        {
          "internalType": "uint256",
          "name": "lastRewardPoints",
          "type": "uint256"
        },
        {
          "internalType": "uint256",
          "name": "rewardsEarned",
          "type": "uint256"
        },
        {
          "internalType": "uint256",
          "name": "rewardsReleased",
          "type": "uint256"
        }
      ],
      "stateMutability": "view",
      "type": "function"
    },
    {
      "inputs": [
        {
          "internalType": "uint256",
          "name": "",
          "type": "uint256"
        }
      ],
      "name": "tokenOwner",
      "outputs": [
        {
          "internalType": "address",
          "name": "",
          "type": "address"
        }
      ],
      "stateMutability": "view",
      "type": "function"
    },
    {
      "inputs": [],
      "name": "tokensClaimable",
      "outputs": [
        {
          "internalType": "bool",
          "name": "",
          "type": "bool"
        }
      ],
      "stateMutability": "view",
      "type": "function"
    },
    {
      "inputs": [],
      "name": "totalUnclaimedRewards",
      "outputs": [
        {
          "internalType": "uint256",
          "name": "",
          "type": "uint256"
        }
      ],
      "stateMutability": "view",
      "type": "function"
    },
    {
      "inputs": [
        {
          "internalType": "address",
          "name": "newOwner",
          "type": "address"
        }
      ],
      "name": "transferOwnership",
      "outputs": [],
      "stateMutability": "nonpayable",
      "type": "function"
    },
    {
      "inputs": [
        {
          "internalType": "address",
          "name": "_user",
          "type": "address"
        }
      ],
      "name": "unclaimedRewards",
      "outputs": [
        {
          "internalType": "uint256",
          "name": "",
          "type": "uint256"
        }
      ],
      "stateMutability": "view",
      "type": "function"
    },
    {
      "inputs": [
        {
          "internalType": "uint256",
          "name": "_tokenId",
          "type": "uint256"
        }
      ],
      "name": "unstake",
      "outputs": [],
      "stateMutability": "nonpayable",
      "type": "function"
    },
    {
      "inputs": [
        {
          "internalType": "uint256[]",
          "name": "tokenIds",
          "type": "uint256[]"
        }
      ],
      "name": "unstakeBatch",
      "outputs": [],
      "stateMutability": "nonpayable",
      "type": "function"
    },
    {
      "inputs": [
        {
          "internalType": "address",
          "name": "_user",
          "type": "address"
        }
      ],
      "name": "updateReward",
      "outputs": [],
      "stateMutability": "nonpayable",
      "type": "function"
    }
  ],
  "bytecode": "0x60806040523480156200001157600080fd5b506040516200153938038062001539833981016040819052620000349162000111565b6200004862000042620000bd565b620000c1565b600754610100900460ff16156200007c5760405162461bcd60e51b815260040162000073906200014f565b60405180910390fd5b600180546001600160a01b039384166001600160a01b031991821617909155600280549290931691161790556007805461ff0019166101001790556200019f565b3390565b600080546001600160a01b038381166001600160a01b0319831681178455604051919092169283917f8be0079c531659141344cd1fd0a4f28419497f9722a3daafe3b4186f6b6457e09190a35050565b6000806040838503121562000124578182fd5b8251620001318162000186565b6020840151909250620001448162000186565b809150509250929050565b60208082526013908201527f416c726561647920696e697469616c6973656400000000000000000000000000604082015260600190565b6001600160a01b03811681146200019c57600080fd5b50565b61138a80620001af6000396000f3fe608060405234801561001057600080fd5b506004361061011d5760003560e01c8063012ce50114610122578063150b7a02146101375780631caaa48714610160578063230f436d146101805780632e17de781461019357806331f684c0146101a6578063542360fd146101bb578063632447c9146101ce57806363c28db1146101e157806369f066a314610201578063715018a6146102165780638da5cb5b1461021e5780638dcb4061146102265780639168ae721461022e578063949813b81461025057806397d5ede514610263578063a694fc3a14610276578063c7272a3814610289578063d1af0c7d14610291578063d279c19114610299578063e3ca0086146102ac578063e64a21f3146102b4578063f2fde38b146102c7575b600080fd5b610135610130366004611027565b6102da565b005b61014a610145366004610ea1565b610367565b60405161015791906110f7565b60405180910390f35b61017361016e366004611027565b610378565b6040516101579190611057565b61013561018e366004610f36565b610393565b6101356101a1366004611027565b6103e6565b6101ae610432565b60405161015791906110ec565b6101356101c9366004610fef565b61043b565b6101356101dc366004610e87565b6104c3565b6101f46101ef366004610e87565b61050e565b60405161015791906110a8565b61020961057b565b6040516101579190611272565b610135610581565b6101736105cc565b6101356105db565b61024161023c366004610e87565b610708565b6040516101579392919061127b565b61020961025e366004610e87565b61072c565b610209610271366004610e87565b6107ab565b610135610284366004611027565b6107e2565b6101736107ec565b6101736107fb565b6101356102a7366004610e87565b61080a565b61020961094c565b6101356102c2366004610f36565b610952565b6101356102d5366004610e87565b610a02565b6000818152600660205260409020546001600160a01b031633146103195760405162461bcd60e51b8152600401610310906111e1565b60405180910390fd5b6103233382610a70565b336001600160a01b03167f571394674ec9d9e81517060110f8f894ce912af2b2febc091bee0cdea68adf008260405161035c9190611272565b60405180910390a250565b630a85bd0160e11b95945050505050565b6006602052600090815260409020546001600160a01b031681565b60005b81518110156103e2576103d0338383815181106103c357634e487b7160e01b600052603260045260246000fd5b6020026020010151610c81565b806103da816112ff565b915050610396565b5050565b6000818152600660205260409020546001600160a01b0316331461041c5760405162461bcd60e51b81526004016103109061110c565b6104253361080a565b61042f3382610a70565b50565b60075460ff1681565b610443610dba565b6001600160a01b03166104546105cc565b6001600160a01b03161461047a5760405162461bcd60e51b8152600401610310906111ac565b6007805460ff19168215151790556040517f4a113b1b56ac87c884bce0b1715ef967c43f546e247aa746d79d92335fe9f825906104b89083906110ec565b60405180910390a150565b60006104ce826107ab565b6001600160a01b0383166000818152600560205260409020919250156105095760038101546104fd9083610dbe565b60038201554260028201555b505050565b6001600160a01b03811660009081526005602090815260409182902080548351818402810184019094528084526060939283018282801561056e57602002820191906000526020600020905b81548152602001906001019080831161055a575b505050505090505b919050565b60045481565b610589610dba565b6001600160a01b031661059a6105cc565b6001600160a01b0316146105c05760405162461bcd60e51b8152600401610310906111ac565b6105ca6000610dca565b565b6000546001600160a01b031690565b6002546040516370a0823160e01b81526000916001600160a01b0316906370a082319061060c903390600401611057565b60206040518083038186803b15801561062457600080fd5b505afa158015610638573d6000803e3d6000fd5b505050506040513d601f19601f8201168201806040525081019061065c919061103f565b905060005b818110156103e257600254604051632f745c5960e01b81526106f69133916001600160a01b0390911690632f745c59906106a1908490879060040161108f565b60206040518083038186803b1580156106b957600080fd5b505afa1580156106cd573d6000803e3d6000fd5b505050506040513d601f19601f820116820180604052508101906106f1919061103f565b610c81565b80610700816112ff565b915050610661565b60056020526000908152604090206002810154600382015460049092015490919083565b6003546001600160a01b0382166000908152600560205260408120549091829161076991670de0b6b3a76400009161076391610e1a565b90610e26565b6001600160a01b038416600090815260056020526040902060048101546003909101549192506107a49161079e908490610dbe565b90610e32565b9392505050565b6003546001600160a01b038216600090815260056020526040812054909182916107a491670de0b6b3a76400009161076391610e1a565b61042f3382610c81565b6002546001600160a01b031681565b6001546001600160a01b031681565b60075460ff1615156001146108315760405162461bcd60e51b81526004016103109061123b565b61083a816104c3565b6001600160a01b03811660009081526005602052604081206004810154600382015491929161086891610e32565b600483015490915061087a9082610dbe565b60048084019190915560015460405163a9059cbb60e01b81526001600160a01b039091169163a9059cbb916108b391879186910161108f565b602060405180830381600087803b1580156108cd57600080fd5b505af11580156108e1573d6000803e3d6000fd5b505050506040513d601f19601f82011682018060405250810190610905919061100b565b50826001600160a01b03167fe2403640ba68fed3a2f88b7557551d1993f84b99bb10ff833f0cf8db0c5e04868260405161093f9190611272565b60405180910390a2505050565b60035481565b61095b3361080a565b60005b81518110156103e257336001600160a01b03166006600084848151811061099557634e487b7160e01b600052603260045260246000fd5b6020908102919091018101518252810191909152604001600020546001600160a01b031614156109f0576109f0338383815181106109e357634e487b7160e01b600052603260045260246000fd5b6020026020010151610a70565b806109fa816112ff565b91505061095e565b610a0a610dba565b6001600160a01b0316610a1b6105cc565b6001600160a01b031614610a415760405162461bcd60e51b8152600401610310906111ac565b6001600160a01b038116610a675760405162461bcd60e51b815260040161031090611166565b61042f81610dca565b6001600160a01b03821660009081526005602052604081208054909190610a99906001906112e8565b90506000826000018281548110610ac057634e487b7160e01b600052603260045260246000fd5b9060005260206000200154905080836000018460010160008781526020019081526020016000205481548110610b0657634e487b7160e01b600052603260045260246000fd5b600091825260208083209091019290925585815260018501909152604080822054838352912055825415610b7d578254839080610b5357634e487b7160e01b600052603160045260246000fd5b60008281526020808220830160001990810183905590920190925585825260018501905260408120555b8254610bbe576001600160a01b038516600090815260056020526040812090610ba68282610e3e565b50600060028201819055600382018190556004909101555b6000848152600660205260409081902080546001600160a01b03191690556002549051632142170760e11b81526001600160a01b03909116906342842e0e90610c0f9030908990899060040161106b565b600060405180830381600087803b158015610c2957600080fd5b505af1158015610c3d573d6000803e3d6000fd5b505050507f0f5bb82176feb1b5e747e28471aa92156a04d9f3ab9f45f28e2d704232b93f758585604051610c7292919061108f565b60405180910390a15050505050565b6001600160a01b03821660009081526005602052604090208054158015610caa57506002810154155b15610cb6574260028201555b610cbf836104c3565b80546001818101835560008381526020812090920184905582548184019291610ce7916112e8565b81526020908101919091526000838152600690915260409081902080546001600160a01b0319166001600160a01b03868116919091179091556002549151632142170760e11b81529116906342842e0e90610d4a9086903090879060040161106b565b600060405180830381600087803b158015610d6457600080fd5b505af1158015610d78573d6000803e3d6000fd5b505050507f9e71bc8eea02a63969f509818f2dafb9254532904319f9dbda79b67bd34a5f3d8383604051610dad92919061108f565b60405180910390a1505050565b3390565b60006107a48284611291565b600080546001600160a01b038381166001600160a01b0319831681178455604051919092169283917f8be0079c531659141344cd1fd0a4f28419497f9722a3daafe3b4186f6b6457e09190a35050565b60006107a482846112c9565b60006107a482846112a9565b60006107a482846112e8565b508054600082559060005260206000209081019061042f91905b80821115610e6c5760008155600101610e58565b5090565b80356001600160a01b038116811461057657600080fd5b600060208284031215610e98578081fd5b6107a482610e70565b600080600080600060808688031215610eb8578081fd5b610ec186610e70565b9450610ecf60208701610e70565b93506040860135925060608601356001600160401b0380821115610ef1578283fd5b818801915088601f830112610f04578283fd5b813581811115610f12578384fd5b896020828501011115610f23578384fd5b9699959850939650602001949392505050565b60006020808385031215610f48578182fd5b82356001600160401b0380821115610f5e578384fd5b818501915085601f830112610f71578384fd5b813581811115610f8357610f83611330565b83810260405185828201018181108582111715610fa257610fa2611330565b604052828152858101935084860182860187018a1015610fc0578788fd5b8795505b83861015610fe2578035855260019590950194938601938601610fc4565b5098975050505050505050565b600060208284031215611000578081fd5b81356107a481611346565b60006020828403121561101c578081fd5b81516107a481611346565b600060208284031215611038578081fd5b5035919050565b600060208284031215611050578081fd5b5051919050565b6001600160a01b0391909116815260200190565b6001600160a01b039384168152919092166020820152604081019190915260600190565b6001600160a01b03929092168252602082015260400190565b6020808252825182820181905260009190848201906040850190845b818110156110e0578351835292840192918401916001016110c4565b50909695505050505050565b901515815260200190565b6001600160e01b031991909116815260200190565b6020808252603a908201527f647265616466756c7a5374616b696e672e5f756e7374616b653a2053656e64656040820152791c881b5d5cdd081a185d99481cdd185ad959081d1bdad95b925160321b606082015260800190565b60208082526026908201527f4f776e61626c653a206e6577206f776e657220697320746865207a65726f206160408201526564647265737360d01b606082015260800190565b6020808252818101527f4f776e61626c653a2063616c6c6572206973206e6f7420746865206f776e6572604082015260600190565b6020808252603a908201527f447265616466756c7a5374616b696e672e5f756e7374616b653a2053656e64656040820152791c881b5d5cdd081a185d99481cdd185ad959081d1bdad95b925160321b606082015260800190565b6020808252601d908201527f546f6b656e732063616e6e6e6f7420626520636c61696d656420796574000000604082015260600190565b90815260200190565b9283526020830191909152604082015260600190565b600082198211156112a4576112a461131a565b500190565b6000826112c457634e487b7160e01b81526012600452602481fd5b500490565b60008160001904831182151516156112e3576112e361131a565b500290565b6000828210156112fa576112fa61131a565b500390565b60006000198214156113135761131361131a565b5060010190565b634e487b7160e01b600052601160045260246000fd5b634e487b7160e01b600052604160045260246000fd5b801515811461042f57600080fdfea26469706673582212208e6eadc14b4d68a6423f97e8fff6a6dd86d3e35272b73688f10ad942e83f84c364736f6c63430008000033",
  "linkReferences": {},
  "deployedLinkReferences": {}
}