{
  "_format": "hh-sol-artifact-1",
  "contractName": "DreadfulzNFT",
  "sourceName": "contracts/DreadfulzNFT.sol",
  "abi": [
    {
      "inputs": [],
      "stateMutability": "payable",
      "type": "constructor"
    },
    {
      "anonymous": false,
      "inputs": [
        {
          "indexed": true,
          "internalType": "address",
          "name": "owner",
          "type": "address"
        },
        {
          "indexed": true,
          "internalType": "address",
          "name": "approved",
          "type": "address"
        },
        {
          "indexed": true,
          "internalType": "uint256",
          "name": "tokenId",
          "type": "uint256"
        }
      ],
      "name": "Approval",
      "type": "event"
    },
    {
      "anonymous": false,
      "inputs": [
        {
          "indexed": true,
          "internalType": "address",
          "name": "owner",
          "type": "address"
        },
        {
          "indexed": true,
          "internalType": "address",
          "name": "operator",
          "type": "address"
        },
        {
          "indexed": false,
          "internalType": "bool",
          "name": "approved",
          "type": "bool"
        }
      ],
      "name": "ApprovalForAll",
      "type": "event"
    },
    {
      "anonymous": false,
      "inputs": [
        {
          "indexed": false,
          "internalType": "bytes32",
          "name": "root",
          "type": "bytes32"
        },
        {
          "indexed": false,
          "internalType": "bytes32[]",
          "name": "proof",
          "type": "bytes32[]"
        },
        {
          "indexed": false,
          "internalType": "bytes32",
          "name": "leaf",
          "type": "bytes32"
        }
      ],
      "name": "DetectAddress",
      "type": "event"
    },
    {
      "anonymous": false,
      "inputs": [
        {
          "indexed": true,
          "internalType": "contract IERC20",
          "name": "token",
          "type": "address"
        },
        {
          "indexed": false,
          "internalType": "address",
          "name": "to",
          "type": "address"
        },
        {
          "indexed": false,
          "internalType": "uint256",
          "name": "amount",
          "type": "uint256"
        }
      ],
      "name": "ERC20PaymentReleased",
      "type": "event"
    },
    {
      "anonymous": false,
      "inputs": [
        {
          "indexed": true,
          "internalType": "address",
          "name": "previousOwner",
          "type": "address"
        },
        {
          "indexed": true,
          "internalType": "address",
          "name": "newOwner",
          "type": "address"
        }
      ],
      "name": "OwnershipTransferred",
      "type": "event"
    },
    {
      "anonymous": false,
      "inputs": [
        {
          "indexed": false,
          "internalType": "address",
          "name": "account",
          "type": "address"
        },
        {
          "indexed": false,
          "internalType": "uint256",
          "name": "shares",
          "type": "uint256"
        }
      ],
      "name": "PayeeAdded",
      "type": "event"
    },
    {
      "anonymous": false,
      "inputs": [
        {
          "indexed": false,
          "internalType": "address",
          "name": "from",
          "type": "address"
        },
        {
          "indexed": false,
          "internalType": "uint256",
          "name": "amount",
          "type": "uint256"
        }
      ],
      "name": "PaymentReceived",
      "type": "event"
    },
    {
      "anonymous": false,
      "inputs": [
        {
          "indexed": false,
          "internalType": "address",
          "name": "to",
          "type": "address"
        },
        {
          "indexed": false,
          "internalType": "uint256",
          "name": "amount",
          "type": "uint256"
        }
      ],
      "name": "PaymentReleased",
      "type": "event"
    },
    {
      "anonymous": false,
      "inputs": [
        {
          "indexed": true,
          "internalType": "address",
          "name": "from",
          "type": "address"
        },
        {
          "indexed": true,
          "internalType": "address",
          "name": "to",
          "type": "address"
        },
        {
          "indexed": true,
          "internalType": "uint256",
          "name": "tokenId",
          "type": "uint256"
        }
      ],
      "name": "Transfer",
      "type": "event"
    },
    {
      "inputs": [],
      "name": "FINAL_SALE_AMOUNT",
      "outputs": [
        {
          "internalType": "uint256",
          "name": "",
          "type": "uint256"
        }
      ],
      "stateMutability": "view",
      "type": "function"
    },
    {
      "inputs": [],
      "name": "FINAL_SALE_PRICE",
      "outputs": [
        {
          "internalType": "uint256",
          "name": "",
          "type": "uint256"
        }
      ],
      "stateMutability": "view",
      "type": "function"
    },
    {
      "inputs": [],
      "name": "FIRST_SALE_AMOUNT",
      "outputs": [
        {
          "internalType": "uint256",
          "name": "",
          "type": "uint256"
        }
      ],
      "stateMutability": "view",
      "type": "function"
    },
    {
      "inputs": [],
      "name": "FIRST_SALE_PRICE",
      "outputs": [
        {
          "internalType": "uint256",
          "name": "",
          "type": "uint256"
        }
      ],
      "stateMutability": "view",
      "type": "function"
    },
    {
      "inputs": [],
      "name": "PRESALE_PRICE",
      "outputs": [
        {
          "internalType": "uint256",
          "name": "",
          "type": "uint256"
        }
      ],
      "stateMutability": "view",
      "type": "function"
    },
    {
      "inputs": [],
      "name": "RESERVED_AMOUNT",
      "outputs": [
        {
          "internalType": "uint256",
          "name": "",
          "type": "uint256"
        }
      ],
      "stateMutability": "view",
      "type": "function"
    },
    {
      "inputs": [],
      "name": "SECOND_SALE_AMOUNT",
      "outputs": [
        {
          "internalType": "uint256",
          "name": "",
          "type": "uint256"
        }
      ],
      "stateMutability": "view",
      "type": "function"
    },
    {
      "inputs": [],
      "name": "SECOND_SALE_PRICE",
      "outputs": [
        {
          "internalType": "uint256",
          "name": "",
          "type": "uint256"
        }
      ],
      "stateMutability": "view",
      "type": "function"
    },
    {
      "inputs": [
        {
          "internalType": "address",
          "name": "to",
          "type": "address"
        },
        {
          "internalType": "uint256",
          "name": "tokenId",
          "type": "uint256"
        }
      ],
      "name": "approve",
      "outputs": [],
      "stateMutability": "nonpayable",
      "type": "function"
    },
    {
      "inputs": [
        {
          "internalType": "address",
          "name": "owner",
          "type": "address"
        }
      ],
      "name": "balanceOf",
      "outputs": [
        {
          "internalType": "uint256",
          "name": "",
          "type": "uint256"
        }
      ],
      "stateMutability": "view",
      "type": "function"
    },
    {
      "inputs": [
        {
          "internalType": "address",
          "name": "owner",
          "type": "address"
        }
      ],
      "name": "balanceOfOwner",
      "outputs": [
        {
          "internalType": "uint256",
          "name": "",
          "type": "uint256"
        }
      ],
      "stateMutability": "view",
      "type": "function"
    },
    {
      "inputs": [
        {
          "internalType": "uint256",
          "name": "tokenId",
          "type": "uint256"
        }
      ],
      "name": "getApproved",
      "outputs": [
        {
          "internalType": "address",
          "name": "",
          "type": "address"
        }
      ],
      "stateMutability": "view",
      "type": "function"
    },
    {
      "inputs": [],
      "name": "is2ndSaleActive",
      "outputs": [
        {
          "internalType": "bool",
          "name": "",
          "type": "bool"
        }
      ],
      "stateMutability": "view",
      "type": "function"
    },
    {
      "inputs": [
        {
          "internalType": "address",
          "name": "owner",
          "type": "address"
        },
        {
          "internalType": "address",
          "name": "operator",
          "type": "address"
        }
      ],
      "name": "isApprovedForAll",
      "outputs": [
        {
          "internalType": "bool",
          "name": "",
          "type": "bool"
        }
      ],
      "stateMutability": "view",
      "type": "function"
    },
    {
      "inputs": [],
      "name": "isFinalSaleActive",
      "outputs": [
        {
          "internalType": "bool",
          "name": "",
          "type": "bool"
        }
      ],
      "stateMutability": "view",
      "type": "function"
    },
    {
      "inputs": [],
      "name": "isSaleActive",
      "outputs": [
        {
          "internalType": "bool",
          "name": "",
          "type": "bool"
        }
      ],
      "stateMutability": "view",
      "type": "function"
    },
    {
      "inputs": [],
      "name": "merkleRoot",
      "outputs": [
        {
          "internalType": "bytes32",
          "name": "",
          "type": "bytes32"
        }
      ],
      "stateMutability": "view",
      "type": "function"
    },
    {
      "inputs": [
        {
          "internalType": "uint256",
          "name": "quantity",
          "type": "uint256"
        }
      ],
      "name": "mint",
      "outputs": [],
      "stateMutability": "payable",
      "type": "function"
    },
    {
      "inputs": [
        {
          "internalType": "address",
          "name": "to_",
          "type": "address"
        },
        {
          "internalType": "uint256",
          "name": "quantity_",
          "type": "uint256"
        }
      ],
      "name": "mintToTeam",
      "outputs": [],
      "stateMutability": "nonpayable",
      "type": "function"
    },
    {
      "inputs": [],
      "name": "name",
      "outputs": [
        {
          "internalType": "string",
          "name": "",
          "type": "string"
        }
      ],
      "stateMutability": "view",
      "type": "function"
    },
    {
      "inputs": [],
      "name": "nextOwnerToExplicitlySet",
      "outputs": [
        {
          "internalType": "uint256",
          "name": "",
          "type": "uint256"
        }
      ],
      "stateMutability": "view",
      "type": "function"
    },
    {
      "inputs": [],
      "name": "owner",
      "outputs": [
        {
          "internalType": "address",
          "name": "",
          "type": "address"
        }
      ],
      "stateMutability": "view",
      "type": "function"
    },
    {
      "inputs": [
        {
          "internalType": "uint256",
          "name": "tokenId",
          "type": "uint256"
        }
      ],
      "name": "ownerOf",
      "outputs": [
        {
          "internalType": "address",
          "name": "",
          "type": "address"
        }
      ],
      "stateMutability": "view",
      "type": "function"
    },
    {
      "inputs": [
        {
          "internalType": "uint256",
          "name": "index",
          "type": "uint256"
        }
      ],
      "name": "payee",
      "outputs": [
        {
          "internalType": "address",
          "name": "",
          "type": "address"
        }
      ],
      "stateMutability": "view",
      "type": "function"
    },
    {
      "inputs": [
        {
          "internalType": "uint256",
          "name": "",
          "type": "uint256"
        }
      ],
      "name": "payees",
      "outputs": [
        {
          "internalType": "address",
          "name": "",
          "type": "address"
        }
      ],
      "stateMutability": "view",
      "type": "function"
    },
    {
      "inputs": [
        {
          "internalType": "uint256",
          "name": "quantity",
          "type": "uint256"
        },
        {
          "internalType": "address",
          "name": "account",
          "type": "address"
        },
        {
          "internalType": "bytes32[]",
          "name": "_merkleProof",
          "type": "bytes32[]"
        }
      ],
      "name": "presale",
      "outputs": [],
      "stateMutability": "payable",
      "type": "function"
    },
    {
      "inputs": [
        {
          "internalType": "address payable",
          "name": "account",
          "type": "address"
        }
      ],
      "name": "release",
      "outputs": [],
      "stateMutability": "nonpayable",
      "type": "function"
    },
    {
      "inputs": [
        {
          "internalType": "contract IERC20",
          "name": "token",
          "type": "address"
        },
        {
          "internalType": "address",
          "name": "account",
          "type": "address"
        }
      ],
      "name": "release",
      "outputs": [],
      "stateMutability": "nonpayable",
      "type": "function"
    },
    {
      "inputs": [
        {
          "internalType": "contract IERC20",
          "name": "token",
          "type": "address"
        },
        {
          "internalType": "address",
          "name": "account",
          "type": "address"
        }
      ],
      "name": "released",
      "outputs": [
        {
          "internalType": "uint256",
          "name": "",
          "type": "uint256"
        }
      ],
      "stateMutability": "view",
      "type": "function"
    },
    {
      "inputs": [
        {
          "internalType": "address",
          "name": "account",
          "type": "address"
        }
      ],
      "name": "released",
      "outputs": [
        {
          "internalType": "uint256",
          "name": "",
          "type": "uint256"
        }
      ],
      "stateMutability": "view",
      "type": "function"
    },
    {
      "inputs": [],
      "name": "renounceOwnership",
      "outputs": [],
      "stateMutability": "nonpayable",
      "type": "function"
    },
    {
      "inputs": [
        {
          "internalType": "address",
          "name": "from",
          "type": "address"
        },
        {
          "internalType": "address",
          "name": "to",
          "type": "address"
        },
        {
          "internalType": "uint256",
          "name": "tokenId",
          "type": "uint256"
        }
      ],
      "name": "safeTransferFrom",
      "outputs": [],
      "stateMutability": "nonpayable",
      "type": "function"
    },
    {
      "inputs": [
        {
          "internalType": "address",
          "name": "from",
          "type": "address"
        },
        {
          "internalType": "address",
          "name": "to",
          "type": "address"
        },
        {
          "internalType": "uint256",
          "name": "tokenId",
          "type": "uint256"
        },
        {
          "internalType": "bytes",
          "name": "_data",
          "type": "bytes"
        }
      ],
      "name": "safeTransferFrom",
      "outputs": [],
      "stateMutability": "nonpayable",
      "type": "function"
    },
    {
      "inputs": [],
      "name": "set2ndSaleActive",
      "outputs": [],
      "stateMutability": "nonpayable",
      "type": "function"
    },
    {
      "inputs": [
        {
          "internalType": "address",
          "name": "operator",
          "type": "address"
        },
        {
          "internalType": "bool",
          "name": "approved",
          "type": "bool"
        }
      ],
      "name": "setApprovalForAll",
      "outputs": [],
      "stateMutability": "nonpayable",
      "type": "function"
    },
    {
      "inputs": [],
      "name": "setFinalSaleActive",
      "outputs": [],
      "stateMutability": "nonpayable",
      "type": "function"
    },
    {
      "inputs": [
        {
          "internalType": "bytes32",
          "name": "_merkleRoot",
          "type": "bytes32"
        }
      ],
      "name": "setMerkleRoot",
      "outputs": [],
      "stateMutability": "nonpayable",
      "type": "function"
    },
    {
      "inputs": [],
      "name": "setSaleActive",
      "outputs": [],
      "stateMutability": "nonpayable",
      "type": "function"
    },
    {
      "inputs": [
        {
          "internalType": "uint256",
          "name": "",
          "type": "uint256"
        }
      ],
      "name": "shares",
      "outputs": [
        {
          "internalType": "uint256",
          "name": "",
          "type": "uint256"
        }
      ],
      "stateMutability": "view",
      "type": "function"
    },
    {
      "inputs": [
        {
          "internalType": "address",
          "name": "account",
          "type": "address"
        }
      ],
      "name": "shares",
      "outputs": [
        {
          "internalType": "uint256",
          "name": "",
          "type": "uint256"
        }
      ],
      "stateMutability": "view",
      "type": "function"
    },
    {
      "inputs": [
        {
          "internalType": "bytes4",
          "name": "interfaceId",
          "type": "bytes4"
        }
      ],
      "name": "supportsInterface",
      "outputs": [
        {
          "internalType": "bool",
          "name": "",
          "type": "bool"
        }
      ],
      "stateMutability": "view",
      "type": "function"
    },
    {
      "inputs": [],
      "name": "symbol",
      "outputs": [
        {
          "internalType": "string",
          "name": "",
          "type": "string"
        }
      ],
      "stateMutability": "view",
      "type": "function"
    },
    {
      "inputs": [
        {
          "internalType": "uint256",
          "name": "index",
          "type": "uint256"
        }
      ],
      "name": "tokenByIndex",
      "outputs": [
        {
          "internalType": "uint256",
          "name": "",
          "type": "uint256"
        }
      ],
      "stateMutability": "view",
      "type": "function"
    },
    {
      "inputs": [
        {
          "internalType": "address",
          "name": "owner",
          "type": "address"
        },
        {
          "internalType": "uint256",
          "name": "index",
          "type": "uint256"
        }
      ],
      "name": "tokenOfOwnerByIndex",
      "outputs": [
        {
          "internalType": "uint256",
          "name": "",
          "type": "uint256"
        }
      ],
      "stateMutability": "view",
      "type": "function"
    },
    {
      "inputs": [
        {
          "internalType": "uint256",
          "name": "tokenId",
          "type": "uint256"
        }
      ],
      "name": "tokenURI",
      "outputs": [
        {
          "internalType": "string",
          "name": "",
          "type": "string"
        }
      ],
      "stateMutability": "view",
      "type": "function"
    },
    {
      "inputs": [
        {
          "internalType": "contract IERC20",
          "name": "token",
          "type": "address"
        }
      ],
      "name": "totalReleased",
      "outputs": [
        {
          "internalType": "uint256",
          "name": "",
          "type": "uint256"
        }
      ],
      "stateMutability": "view",
      "type": "function"
    },
    {
      "inputs": [],
      "name": "totalReleased",
      "outputs": [
        {
          "internalType": "uint256",
          "name": "",
          "type": "uint256"
        }
      ],
      "stateMutability": "view",
      "type": "function"
    },
    {
      "inputs": [],
      "name": "totalShares",
      "outputs": [
        {
          "internalType": "uint256",
          "name": "",
          "type": "uint256"
        }
      ],
      "stateMutability": "view",
      "type": "function"
    },
    {
      "inputs": [],
      "name": "totalSupply",
      "outputs": [
        {
          "internalType": "uint256",
          "name": "",
          "type": "uint256"
        }
      ],
      "stateMutability": "view",
      "type": "function"
    },
    {
      "inputs": [
        {
          "internalType": "address",
          "name": "from",
          "type": "address"
        },
        {
          "internalType": "address",
          "name": "to",
          "type": "address"
        },
        {
          "internalType": "uint256",
          "name": "tokenId",
          "type": "uint256"
        }
      ],
      "name": "transferFrom",
      "outputs": [],
      "stateMutability": "nonpayable",
      "type": "function"
    },
    {
      "inputs": [
        {
          "internalType": "address",
          "name": "newOwner",
          "type": "address"
        }
      ],
      "name": "transferOwnership",
      "outputs": [],
      "stateMutability": "nonpayable",
      "type": "function"
    },
    {
      "inputs": [
        {
          "internalType": "address",
          "name": "",
          "type": "address"
        }
      ],
      "name": "whitelistClaimed",
      "outputs": [
        {
          "internalType": "bool",
          "name": "",
          "type": "bool"
        }
      ],
      "stateMutability": "view",
      "type": "function"
    },
    {
      "stateMutability": "payable",
      "type": "receive"
    }
  ],
  "bytecode": "0x600060028181556009919091557fca978112ca1bbdcafac231b39a23dc4da786eff8147c4e72b9807785afee48bb6015556017805462ffffff19169055603260185560de6019556107d0601a819055601b55666a94d74f430000601c55668e1bc9bf040000601d5566b1a2bc2ec50000601e5566d529ae9e860000601f55602080546001600160a01b031990811673d387098b3ca4c6d592be0ce0b69e83be86011c5017918290556021805490911673f39fd6e51aad88f6f4ce6ab8827279cfffb92266179081905560e06040526001600160a01b0391821660a0908152911660c052620000f19160229190620004df565b5060408051808201909152601e8152604660208201526200011790602390600262000549565b5060228054806020026020016040519081016040528092919081815260200182805480156200017057602002820191906000526020600020905b81546001600160a01b0316815260019091019060200180831162000151575b50505050506023805480602002602001604051908101604052809291908181526020018280548015620001c357602002820191906000526020600020905b815481526020019060010190808311620001ae575b50505050506040518060400160405280600d81526020016c111c995859199d5b1e88139195609a1b8152506040518060400160405280600381526020016222292360e91b815250600562000226620002206200035960201b60201c565b6200035d565b6001805580620002535760405162461bcd60e51b81526004016200024a9062000685565b60405180910390fd5b8251620002689060039060208601906200058c565b5081516200027e9060049060208501906200058c565b5060805250508051825114620002a85760405162461bcd60e51b81526004016200024a90620006cc565b6000825111620002cc5760405162461bcd60e51b81526004016200024a9062000769565b60005b825181101562000350576200033b838281518110620002fe57634e487b7160e01b600052603260045260246000fd5b60200260200101518383815181106200032757634e487b7160e01b600052603260045260246000fd5b6020026020010151620003ad60201b60201c565b8062000347816200082f565b915050620002cf565b50505062000863565b3390565b600080546001600160a01b038381166001600160a01b0319831681178455604051919092169283917f8be0079c531659141344cd1fd0a4f28419497f9722a3daafe3b4186f6b6457e09190a35050565b6001600160a01b038216620003d65760405162461bcd60e51b81526004016200024a9062000639565b60008111620003f95760405162461bcd60e51b81526004016200024a90620007a0565b6001600160a01b0382166000908152600c602052604090205415620004325760405162461bcd60e51b81526004016200024a906200071e565b600e8054600181019091557fbb7b4a454dc3493923482f07822329ed19e8244eff582cc204f8554c3620c3fd0180546001600160a01b0319166001600160a01b0384169081179091556000908152600c60205260409020819055600a546200049c908290620007d7565b600a556040517f40c340f65e17194d14ddddb073d3c9f888e3cb52b5aae0c6c7706b4fbc905fac90620004d3908490849062000620565b60405180910390a15050565b82805482825590600052602060002090810192821562000537579160200282015b828111156200053757825182546001600160a01b0319166001600160a01b0390911617825560209092019160019091019062000500565b506200054592915062000609565b5090565b82805482825590600052602060002090810192821562000537579160200282015b8281111562000537578251829060ff169055916020019190600101906200056a565b8280546200059a90620007f2565b90600052602060002090601f016020900481019282620005be576000855562000537565b82601f10620005d957805160ff191683800117855562000537565b8280016001018555821562000537579182015b8281111562000537578251825591602001919060010190620005ec565b5b808211156200054557600081556001016200060a565b6001600160a01b03929092168252602082015260400190565b6020808252602c908201527f5061796d656e7453706c69747465723a206163636f756e74206973207468652060408201526b7a65726f206164647265737360a01b606082015260800190565b60208082526027908201527f455243373231413a206d61782062617463682073697a65206d757374206265206040820152666e6f6e7a65726f60c81b606082015260800190565b60208082526032908201527f5061796d656e7453706c69747465723a2070617965657320616e6420736861726040820152710cae640d8cadccee8d040dad2e6dac2e8c6d60731b606082015260800190565b6020808252602b908201527f5061796d656e7453706c69747465723a206163636f756e7420616c726561647960408201526a206861732073686172657360a81b606082015260800190565b6020808252601a908201527f5061796d656e7453706c69747465723a206e6f20706179656573000000000000604082015260600190565b6020808252601d908201527f5061796d656e7453706c69747465723a20736861726573206172652030000000604082015260600190565b60008219821115620007ed57620007ed6200084d565b500190565b6002810460018216806200080757607f821691505b602082108114156200082957634e487b7160e01b600052602260045260246000fd5b50919050565b60006000198214156200084657620008466200084d565b5060010190565b634e487b7160e01b600052601160045260246000fd5b6080516136206200088d60003960008181611e1c01528181611e46015261230f01526136206000f3fe6080604052600436106102535760003560e01c806301ffc9a71461029f57806306fdde03146102d5578063081812fc146102f7578063095ea7b31461032457806318160ddd14610346578063191655871461036857806323b872dd14610388578063243b3b7b146103a8578063261f5a97146103bd578063279a8ea2146103d25780632eb4a7ab146103e55780632f745c59146103fa5780633a98ef391461041a578063406072a91461042f57806342842e0e1461044f57806348b750441461046f5780634f6ccce71461048f578063564566a8146104af57806357a858fc146104c457806358821375146104e457806358e4aa78146104f957806362dc6e211461051957806363037b0c1461052e5780636352211e1461054e57806370a082311461056e578063715018a61461058e5780637cb64759146105a35780638383f964146105c35780638b83209b146105d85780638da5cb5b146105f857806395d89b411461060d5780639852595c1461062257806399ef2fb814610642578063a0712d6814610657578063a22cb4651461066a578063b09b7c931461068a578063b6daa3571461069f578063b88d4fde146106b4578063c66130d7146106d4578063c87b56dd146106f4578063ce7c2ac214610714578063d7224ba014610734578063d79779b214610749578063d85f274014610769578063d9b4b8601461077e578063db4bec4414610793578063dfdc7cbf146107b3578063e33a560c146107c8578063e33b7de3146107dd578063e985e9c5146107f2578063f034e6bf14610812578063f2fde38b146108275761029a565b3661029a577f6ef95f06320e7a25a04a175ca677b7052bdd97131872c2192525a629f51be770610281610847565b34604051610290929190612a4c565b60405180910390a1005b600080fd5b3480156102ab57600080fd5b506102bf6102ba3660046128ae565b61084b565b6040516102cc9190612aa2565b60405180910390f35b3480156102e157600080fd5b506102ea6108ae565b6040516102cc9190612ab6565b34801561030357600080fd5b50610317610312366004612896565b610940565b6040516102cc9190612a38565b34801561033057600080fd5b5061034461033f36600461284f565b61098c565b005b34801561035257600080fd5b5061035b610a25565b6040516102cc9190612aad565b34801561037457600080fd5b506103446103833660046126bf565b610a2b565b34801561039457600080fd5b506103446103a3366004612713565b610b39565b3480156103b457600080fd5b5061035b610b44565b3480156103c957600080fd5b50610344610b4a565b6103446103e0366004612910565b610b98565b3480156103f157600080fd5b5061035b610da4565b34801561040657600080fd5b5061035b61041536600461284f565b610daa565b34801561042657600080fd5b5061035b610ea5565b34801561043b57600080fd5b5061035b61044a3660046128e6565b610eab565b34801561045b57600080fd5b5061034461046a366004612713565b610ed6565b34801561047b57600080fd5b5061034461048a3660046128e6565b610ef1565b34801561049b57600080fd5b5061035b6104aa366004612896565b6110a7565b3480156104bb57600080fd5b506102bf6110d3565b3480156104d057600080fd5b5061035b6104df366004612896565b6110dc565b3480156104f057600080fd5b506102bf6110fd565b34801561050557600080fd5b5061034461051436600461284f565b61110c565b34801561052557600080fd5b5061035b61118c565b34801561053a57600080fd5b50610317610549366004612896565b611192565b34801561055a57600080fd5b50610317610569366004612896565b6111bc565b34801561057a57600080fd5b5061035b6105893660046126bf565b6111ce565b34801561059a57600080fd5b5061034461121b565b3480156105af57600080fd5b506103446105be366004612896565b611266565b3480156105cf57600080fd5b5061035b6112aa565b3480156105e457600080fd5b506103176105f3366004612896565b6112b0565b34801561060457600080fd5b506103176112ee565b34801561061957600080fd5b506102ea6112fd565b34801561062e57600080fd5b5061035b61063d3660046126bf565b61130c565b34801561064e57600080fd5b50610344611327565b610344610665366004612896565b611377565b34801561067657600080fd5b50610344610685366004612822565b6115a0565b34801561069657600080fd5b5061035b61166e565b3480156106ab57600080fd5b50610344611674565b3480156106c057600080fd5b506103446106cf366004612753565b6116c6565b3480156106e057600080fd5b5061035b6106ef3660046126bf565b6116ff565b34801561070057600080fd5b506102ea61070f366004612896565b611748565b34801561072057600080fd5b5061035b61072f3660046126bf565b6117cb565b34801561074057600080fd5b5061035b6117e6565b34801561075557600080fd5b5061035b6107643660046126bf565b6117ec565b34801561077557600080fd5b5061035b611807565b34801561078a57600080fd5b5061035b61180d565b34801561079f57600080fd5b506102bf6107ae3660046126bf565b611813565b3480156107bf57600080fd5b5061035b611828565b3480156107d457600080fd5b5061035b61182e565b3480156107e957600080fd5b5061035b611834565b3480156107fe57600080fd5b506102bf61080d3660046126db565b61183a565b34801561081e57600080fd5b506102bf611868565b34801561083357600080fd5b506103446108423660046126bf565b611876565b3390565b60006001600160e01b031982166380ac58cd60e01b148061087c57506001600160e01b03198216635b5e139f60e01b145b8061089757506001600160e01b0319821663780e9d6360e01b145b806108a657506108a6826118e7565b90505b919050565b6060600380546108bd906134e5565b80601f01602080910402602001604051908101604052809291908181526020018280546108e9906134e5565b80156109365780601f1061090b57610100808354040283529160200191610936565b820191906000526020600020905b81548152906001019060200180831161091957829003601f168201915b5050505050905090565b600061094b82611900565b6109705760405162461bcd60e51b815260040161096790613367565b60405180910390fd5b506000908152600760205260409020546001600160a01b031690565b6000610997826111bc565b9050806001600160a01b0316836001600160a01b031614156109cb5760405162461bcd60e51b8152600401610967906130ae565b806001600160a01b03166109dd610847565b6001600160a01b031614806109f957506109f98161080d610847565b610a155760405162461bcd60e51b815260040161096790612ddf565b610a20838383611907565b505050565b60025490565b6001600160a01b0381166000908152600c6020526040902054610a605760405162461bcd60e51b815260040161096790612c43565b6000610a6a611834565b610a749047613418565b90506000610a8b8383610a868661130c565b611963565b905080610aaa5760405162461bcd60e51b815260040161096790612d5f565b6001600160a01b0383166000908152600d602052604081208054839290610ad2908490613418565b9250508190555080600b6000828254610aeb9190613418565b90915550610afb905083826119a9565b7fdf20fd1e76bc69d672e4814fafb2c449bba3a5369d8359adf9e05e6fde87b0568382604051610b2c929190612a4c565b60405180910390a1505050565b610a20838383611a45565b601d5481565b610b52610847565b6001600160a01b0316610b636112ee565b6001600160a01b031614610b895760405162461bcd60e51b815260040161096790612f78565b6017805460ff19166001179055565b60026001541415610bbb5760405162461bcd60e51b8152600401610967906132e1565b6002600155336001600160a01b03841614610be85760405162461bcd60e51b815260040161096790612bc9565b60175460ff1680610c005750601754610100900460ff165b80610c13575060175462010000900460ff165b610c2f5760405162461bcd60e51b815260040161096790612b0b565b83601c54610c3d9190613444565b341015610c5c5760405162461bcd60e51b815260040161096790613082565b3360009081526016602052604090205460ff1615610c8c5760405162461bcd60e51b815260040161096790612daa565b60008484604051602001610ca1929190612a1d565b604051602081830303815290604052805190602001209050610cfa838380806020026020016040519081016040528093929190818152602001838360200280828437600092019190915250506015549150849050611d43565b610d165760405162461bcd60e51b8152600401610967906131f2565b336000908152601660205260408120805460ff19166001179055610d38610a25565b90505b85610d44610a25565b610d4e9190613418565b811015610d8e57336000908152601160205260409020610d6e9082611d59565b50610d7b60128233611d65565b50610d87600182613418565b9050610d3b565b50610d993386611d7b565b505060018055505050565b60155481565b6000610db5836111ce565b8210610dd35760405162461bcd60e51b815260040161096790612ac9565b6000610ddd610a25565b905060008060005b83811015610e86576000818152600560209081526040918290208251808401909352546001600160a01b038116808452600160a01b9091046001600160401b03169183019190915215610e3757805192505b876001600160a01b0316836001600160a01b03161415610e735786841415610e6557509350610e9f92505050565b83610e6f81613520565b9450505b5080610e7e81613520565b915050610de5565b5060405162461bcd60e51b815260040161096790613293565b92915050565b600a5490565b6001600160a01b03918216600090815260106020908152604080832093909416825291909152205490565b610a20838383604051806020016040528060008152506116c6565b6001600160a01b0381166000908152600c6020526040902054610f265760405162461bcd60e51b815260040161096790612c43565b6000610f31836117ec565b6040516370a0823160e01b81526001600160a01b038516906370a0823190610f5d903090600401612a38565b60206040518083038186803b158015610f7557600080fd5b505afa158015610f89573d6000803e3d6000fd5b505050506040513d601f19601f82011682018060405250810190610fad91906128f8565b610fb79190613418565b90506000610fca8383610a868787610eab565b905080610fe95760405162461bcd60e51b815260040161096790612d5f565b6001600160a01b03808516600090815260106020908152604080832093871683529290529081208054839290611020908490613418565b90915550506001600160a01b0384166000908152600f60205260408120805483929061104d908490613418565b9091555061105e9050848483611d95565b836001600160a01b03167f3be5b7a71e84ed12875d241991c70855ac5817d847039e17a9d895c1ceb0f18a8483604051611099929190612a4c565b60405180910390a250505050565b60006110b1610a25565b82106110cf5760405162461bcd60e51b815260040161096790612c00565b5090565b60175460ff1681565b602381815481106110ec57600080fd5b600091825260209091200154905081565b60175462010000900460ff1681565b611114610847565b6001600160a01b03166111256112ee565b6001600160a01b03161461114b5760405162461bcd60e51b815260040161096790612f78565b60185481611157610a25565b6111619190613418565b1061117e5760405162461bcd60e51b815260040161096790612e82565b6111888282611d7b565b5050565b601c5481565b602281815481106111a257600080fd5b6000918252602090912001546001600160a01b0316905081565b60006111c782611deb565b5192915050565b60006001600160a01b0382166111f65760405162461bcd60e51b815260040161096790612eb7565b506001600160a01b03166000908152600660205260409020546001600160801b031690565b611223610847565b6001600160a01b03166112346112ee565b6001600160a01b03161461125a5760405162461bcd60e51b815260040161096790612f78565b6112646000611efd565b565b61126e610847565b6001600160a01b031661127f6112ee565b6001600160a01b0316146112a55760405162461bcd60e51b815260040161096790612f78565b601555565b601e5481565b6000600e82815481106112d357634e487b7160e01b600052603260045260246000fd5b6000918252602090912001546001600160a01b031692915050565b6000546001600160a01b031690565b6060600480546108bd906134e5565b6001600160a01b03166000908152600d602052604090205490565b61132f610847565b6001600160a01b03166113406112ee565b6001600160a01b0316146113665760405162461bcd60e51b815260040161096790612f78565b6017805461ffff1916610100179055565b6002600154141561139a5760405162461bcd60e51b8152600401610967906132e1565b600260015560175460ff16806113b75750601754610100900460ff165b806113ca575060175462010000900460ff165b6113e65760405162461bcd60e51b815260040161096790612b0b565b601d5460175460ff1615611434576019546018546114049190613418565b8261140d610a25565b6114179190613418565b106114345760405162461bcd60e51b815260040161096790613263565b601754610100900460ff16156114955750601e54601a5460195460185461145b9190613418565b6114659190613418565b8261146e610a25565b6114789190613418565b106114955760405162461bcd60e51b815260040161096790612f02565b60175462010000900460ff16156115045750601f54601b54601a546019546018546114c09190613418565b6114ca9190613418565b6114d49190613418565b826114dd610a25565b6114e79190613418565b106115045760405162461bcd60e51b815260040161096790612f02565b61150e8282613444565b34101561152d5760405162461bcd60e51b815260040161096790613082565b6000611537610a25565b90505b82611543610a25565b61154d9190613418565b81101561158d5733600090815260116020526040902061156d9082611d59565b5061157a60128233611d65565b50611586600182613418565b905061153a565b506115983383611d7b565b505060018055565b6115a8610847565b6001600160a01b0316826001600160a01b031614156115d95760405162461bcd60e51b815260040161096790612ffc565b80600860006115e6610847565b6001600160a01b03908116825260208083019390935260409182016000908120918716808252919093529120805460ff19169215159290921790915561162a610847565b6001600160a01b03167f17307eab39ab6107e8899845ad3d59bd9653f200f220920489ca2b5937696c31836040516116629190612aa2565b60405180910390a35050565b601b5481565b61167c610847565b6001600160a01b031661168d6112ee565b6001600160a01b0316146116b35760405162461bcd60e51b815260040161096790612f78565b6017805462ffffff191662010000179055565b6116d1848484611a45565b6116dd84848484611f4d565b6116f95760405162461bcd60e51b8152600401610967906130f0565b50505050565b60006001600160a01b0382166117275760405162461bcd60e51b815260040161096790612e38565b6001600160a01b03821660009081526011602052604090206108a690612068565b606061175382611900565b61176f5760405162461bcd60e51b815260040161096790612fad565b6000611779612073565b9050600081511161179957604051806020016040528060008152506117c4565b806117a384612085565b6040516020016117b49291906129eb565b6040516020818303038152906040525b9392505050565b6001600160a01b03166000908152600c602052604090205490565b60095481565b6001600160a01b03166000908152600f602052604090205490565b60185481565b601a5481565b60166020526000908152604090205460ff1681565b60195481565b601f5481565b600b5490565b6001600160a01b03918216600090815260086020908152604080832093909416825291909152205460ff1690565b601754610100900460ff1681565b61187e610847565b6001600160a01b031661188f6112ee565b6001600160a01b0316146118b55760405162461bcd60e51b815260040161096790612f78565b6001600160a01b0381166118db5760405162461bcd60e51b815260040161096790612b39565b6118e481611efd565b50565b6001600160e01b031981166301ffc9a760e01b14919050565b6002541190565b60008281526007602052604080822080546001600160a01b0319166001600160a01b0387811691821790925591518593918516917f8c5be1e5ebec7d5bd14f71427d1e84f3dd0314c0f7b2291e5b200ac8c7c3b92591a4505050565b600a546001600160a01b0384166000908152600c60205260408120549091839161198d9086613444565b6119979190613430565b6119a1919061348b565b949350505050565b804710156119c95760405162461bcd60e51b815260040161096790612d28565b6000826001600160a01b0316826040516119e290612a1a565b60006040518083038185875af1925050503d8060008114611a1f576040519150601f19603f3d011682016040523d82523d6000602084013e611a24565b606091505b5050905080610a205760405162461bcd60e51b815260040161096790612cce565b6000611a5082611deb565b9050600081600001516001600160a01b0316611a6a610847565b6001600160a01b03161480611a9f5750611a82610847565b6001600160a01b0316611a9484610940565b6001600160a01b0316145b80611ab357508151611ab39061080d610847565b905080611ad25760405162461bcd60e51b815260040161096790613030565b846001600160a01b031682600001516001600160a01b031614611b075760405162461bcd60e51b815260040161096790612f32565b6001600160a01b038416611b2d5760405162461bcd60e51b815260040161096790612c89565b611b3a85858560016116f9565b611b4a6000848460000151611907565b6001600160a01b0385166000908152600660205260408120805460019290611b7c9084906001600160801b0316613463565b82546101009290920a6001600160801b038181021990931691831602179091556001600160a01b03861660009081526006602052604081208054600194509092611bc8918591166133f6565b82546001600160801b039182166101009390930a9283029190920219909116179055506040805180820182526001600160a01b0380871682526001600160401b03428116602080850191825260008981526005909152948520935184549151909216600160a01b02600160a01b600160e01b0319929093166001600160a01b03199091161716179055611c5c846001613418565b6000818152600560205260409020549091506001600160a01b0316611cff57611c8481611900565b15611cff5760408051808201825284516001600160a01b0390811682526020808701516001600160401b0390811682850190815260008781526005909352949091209251835494516001600160a01b0319909516921691909117600160a01b600160e01b031916600160a01b93909116929092029190911790555b83856001600160a01b0316876001600160a01b03166000805160206135cb83398151915260405160405180910390a4611d3b86868660016116f9565b505050505050565b600082611d50858461219f565b14949350505050565b60006117c48383612257565b60006119a184846001600160a01b0385166122a1565b6111888282604051806020016040528060008152506122be565b610a208363a9059cbb60e01b8484604051602401611db4929190612a4c565b60408051601f198184030181529190526020810180516001600160e01b03166001600160e01b031990931692909217909152612515565b611df36126a8565b611dfc82611900565b611e185760405162461bcd60e51b815260040161096790612b7f565b60007f00000000000000000000000000000000000000000000000000000000000000008310611e7957611e6b7f00000000000000000000000000000000000000000000000000000000000000008461348b565b611e76906001613418565b90505b825b818110611ee4576000818152600560209081526040918290208251808401909352546001600160a01b038116808452600160a01b9091046001600160401b03169183019190915215611ed15792506108a9915050565b5080611edc816134ce565b915050611e7b565b5060405162461bcd60e51b815260040161096790613318565b600080546001600160a01b038381166001600160a01b0319831681178455604051919092169283917f8be0079c531659141344cd1fd0a4f28419497f9722a3daafe3b4186f6b6457e09190a35050565b6000611f61846001600160a01b03166125a4565b1561205d57836001600160a01b031663150b7a02611f7d610847565b8786866040518563ffffffff1660e01b8152600401611f9f9493929190612a65565b602060405180830381600087803b158015611fb957600080fd5b505af1925050508015611fe9575060408051601f3d908101601f19168201909252611fe6918101906128ca565b60015b612043573d808015612017576040519150601f19603f3d011682016040523d82523d6000602084013e61201c565b606091505b50805161203b5760405162461bcd60e51b8152600401610967906130f0565b805181602001fd5b6001600160e01b031916630a85bd0160e11b1490506119a1565b506001949350505050565b60006108a6826125aa565b60408051602081019091526000815290565b6060816120aa57506040805180820190915260018152600360fc1b60208201526108a9565b8160005b81156120d457806120be81613520565b91506120cd9050600a83613430565b91506120ae565b6000816001600160401b038111156120fc57634e487b7160e01b600052604160045260246000fd5b6040519080825280601f01601f191660200182016040528015612126576020820181803683370190505b5090505b84156119a15761213b60018361348b565b9150612148600a8661353b565b612153906030613418565b60f81b81838151811061217657634e487b7160e01b600052603260045260246000fd5b60200101906001600160f81b031916908160001a905350612198600a86613430565b945061212a565b600081815b845181101561224f5760008582815181106121cf57634e487b7160e01b600052603260045260246000fd5b602002602001015190508083116122105782816040516020016121f39291906129c1565b60405160208183030381529060405280519060200120925061223c565b80836040516020016122239291906129c1565b6040516020818303038152906040528051906020012092505b508061224781613520565b9150506121a4565b509392505050565b600061226383836125ae565b61229957508154600181810184556000848152602080822090930184905584548482528286019093526040902091909155610e9f565b506000610e9f565b600082815260028401602052604081208290556119a18484611d59565b6002546001600160a01b0384166122e75760405162461bcd60e51b8152600401610967906131b1565b6122f081611900565b1561230d5760405162461bcd60e51b815260040161096790613143565b7f000000000000000000000000000000000000000000000000000000000000000083111561234d5760405162461bcd60e51b8152600401610967906133b4565b61235a60008583866116f9565b6001600160a01b0384166000908152600660209081526040918290208251808401845290546001600160801b038082168352600160801b90910416918101919091528151808301909252805190919081906123b69087906133f6565b6001600160801b031681526020018583602001516123d491906133f6565b6001600160801b039081169091526001600160a01b03808816600081815260066020908152604080832087518154988401518816600160801b029088166001600160801b03199099169890981790961696909617909455845180860186529182526001600160401b034281168386019081528883526005909552948120915182549451909516600160a01b02600160a01b600160e01b0319959093166001600160a01b031990941693909317939093161790915582905b858110156125025760405182906001600160a01b038916906000906000805160206135cb833981519152908290a46124c66000888488611f4d565b6124e25760405162461bcd60e51b8152600401610967906130f0565b816124ec81613520565b92505080806124fa90613520565b91505061248b565b506002819055611d3b60008785886116f9565b600061256a826040518060400160405280602081526020017f5361666545524332303a206c6f772d6c6576656c2063616c6c206661696c6564815250856001600160a01b03166125c69092919063ffffffff16565b805190915015610a205780806020019051810190612588919061287a565b610a205760405162461bcd60e51b815260040161096790613219565b3b151590565b5490565b60009081526001919091016020526040902054151590565b60606119a18484600085856125da856125a4565b6125f65760405162461bcd60e51b81526004016109679061317a565b600080866001600160a01b0316858760405161261291906129cf565b60006040518083038185875af1925050503d806000811461264f576040519150601f19603f3d011682016040523d82523d6000602084013e612654565b606091505b509150915061266482828661266f565b979650505050505050565b6060831561267e5750816117c4565b82511561268e5782518084602001fd5b8160405162461bcd60e51b81526004016109679190612ab6565b604080518082019091526000808252602082015290565b6000602082840312156126d0578081fd5b81356117c481613591565b600080604083850312156126ed578081fd5b82356126f881613591565b9150602083013561270881613591565b809150509250929050565b600080600060608486031215612727578081fd5b833561273281613591565b9250602084013561274281613591565b929592945050506040919091013590565b60008060008060808587031215612768578081fd5b843561277381613591565b935060208581013561278481613591565b93506040860135925060608601356001600160401b03808211156127a6578384fd5b818801915088601f8301126127b9578384fd5b8135818111156127cb576127cb61357b565b604051601f8201601f19168101850183811182821017156127ee576127ee61357b565b60405281815283820185018b1015612804578586fd5b81858501868301379081019093019390935250939692955090935050565b60008060408385031215612834578182fd5b823561283f81613591565b91506020830135612708816135a6565b60008060408385031215612861578182fd5b823561286c81613591565b946020939093013593505050565b60006020828403121561288b578081fd5b81516117c4816135a6565b6000602082840312156128a7578081fd5b5035919050565b6000602082840312156128bf578081fd5b81356117c4816135b4565b6000602082840312156128db578081fd5b81516117c4816135b4565b600080604083850312156126ed578182fd5b600060208284031215612909578081fd5b5051919050565b60008060008060608587031215612925578182fd5b84359350602085013561293781613591565b925060408501356001600160401b0380821115612952578384fd5b818701915087601f830112612965578384fd5b813581811115612973578485fd5b8860208083028501011115612986578485fd5b95989497505060200194505050565b600081518084526129ad8160208601602086016134a2565b601f01601f19169290920160200192915050565b918252602082015260400190565b600082516129e18184602087016134a2565b9190910192915050565b600083516129fd8184602088016134a2565b835190830190612a118183602088016134a2565b01949350505050565b90565b91825260601b6001600160601b031916602082015260340190565b6001600160a01b0391909116815260200190565b6001600160a01b03929092168252602082015260400190565b6001600160a01b0385811682528416602082015260408101839052608060608201819052600090612a9890830184612995565b9695505050505050565b901515815260200190565b90815260200190565b6000602082526117c46020830184612995565b60208082526022908201527f455243373231413a206f776e657220696e646578206f7574206f6620626f756e604082015261647360f01b606082015260800190565b60208082526014908201527314d85b19481b9bdd081cdd185c9d1959081e595d60621b604082015260600190565b60208082526026908201527f4f776e61626c653a206e6577206f776e657220697320746865207a65726f206160408201526564647265737360d01b606082015260800190565b6020808252602a908201527f455243373231413a206f776e657220717565727920666f72206e6f6e657869736040820152693a32b73a103a37b5b2b760b11b606082015260800190565b6020808252601d908201527f43616e6e6f74206d696e7420666f72206f746865722061646472657373000000604082015260600190565b60208082526023908201527f455243373231413a20676c6f62616c20696e646578206f7574206f6620626f756040820152626e647360e81b606082015260800190565b60208082526026908201527f5061796d656e7453706c69747465723a206163636f756e7420686173206e6f2060408201526573686172657360d01b606082015260800190565b60208082526025908201527f455243373231413a207472616e7366657220746f20746865207a65726f206164604082015264647265737360d81b606082015260800190565b6020808252603a908201527f416464726573733a20756e61626c6520746f2073656e642076616c75652c20726040820152791958da5c1a595b9d081b585e481a185d99481c995d995c9d195960321b606082015260800190565b6020808252601d908201527f416464726573733a20696e73756666696369656e742062616c616e6365000000604082015260600190565b6020808252602b908201527f5061796d656e7453706c69747465723a206163636f756e74206973206e6f742060408201526a191d59481c185e5b595b9d60aa1b606082015260800190565b6020808252601b908201527a1059191c995cdcc81a185cc8185b1c9958591e4818db185a5b5959602a1b604082015260600190565b60208082526039908201527f455243373231413a20617070726f76652063616c6c6572206973206e6f74206f6040820152781ddb995c881b9bdc88185c1c1c9bdd995908199bdc88185b1b603a1b606082015260800190565b6020808252602a908201527f4552433732313a2062616c616e636520717565727920666f7220746865207a65604082015269726f206164647265737360b01b606082015260800190565b6020808252818101527f4578636565647320726573657276656420616d6f756e7420666f72207465616d604082015260600190565b6020808252602b908201527f455243373231413a2062616c616e636520717565727920666f7220746865207a60408201526a65726f206164647265737360a81b606082015260800190565b602080825260169082015275115e18d95959080c9b990814d85b1948185b5bdd5b9d60521b604082015260600190565b60208082526026908201527f455243373231413a207472616e736665722066726f6d20696e636f72726563746040820152651037bbb732b960d11b606082015260800190565b6020808252818101527f4f776e61626c653a2063616c6c6572206973206e6f7420746865206f776e6572604082015260600190565b6020808252602f908201527f4552433732314d657461646174613a2055524920717565727920666f72206e6f60408201526e3732bc34b9ba32b73a103a37b5b2b760891b606082015260800190565b6020808252601a908201527922a9219b9918a09d1030b8383937bb32903a379031b0b63632b960311b604082015260600190565b60208082526032908201527f455243373231413a207472616e736665722063616c6c6572206973206e6f74206040820152711bdddb995c881b9bdc88185c1c1c9bdd995960721b606082015260800190565b602080825260129082015271139bdd08195b9bdd59da081c185e5b595b9d60721b604082015260600190565b60208082526022908201527f455243373231413a20617070726f76616c20746f2063757272656e74206f776e60408201526132b960f11b606082015260800190565b60208082526033908201527f455243373231413a207472616e7366657220746f206e6f6e204552433732315260408201527232b1b2b4bb32b91034b6b83632b6b2b73a32b960691b606082015260800190565b6020808252601d908201527f455243373231413a20746f6b656e20616c7265616479206d696e746564000000604082015260600190565b6020808252601d908201527f416464726573733a2063616c6c20746f206e6f6e2d636f6e7472616374000000604082015260600190565b60208082526021908201527f455243373231413a206d696e7420746f20746865207a65726f206164647265736040820152607360f81b606082015260800190565b6020808252600d908201526c24b73b30b634b210283937b7b360991b604082015260600190565b6020808252602a908201527f5361666545524332303a204552433230206f7065726174696f6e20646964206e6040820152691bdd081cdd58d8d9595960b21b606082015260800190565b602080825260169082015275115e18d95959080c5cdd0814d85b1948185b5bdd5b9d60521b604082015260600190565b6020808252602e908201527f455243373231413a20756e61626c6520746f2067657420746f6b656e206f662060408201526d0deeedccae440c4f240d2dcc8caf60931b606082015260800190565b6020808252601f908201527f5265656e7472616e637947756172643a207265656e7472616e742063616c6c00604082015260600190565b6020808252602f908201527f455243373231413a20756e61626c6520746f2064657465726d696e652074686560408201526e1037bbb732b91037b3103a37b5b2b760891b606082015260800190565b6020808252602d908201527f455243373231413a20617070726f76656420717565727920666f72206e6f6e6560408201526c3c34b9ba32b73a103a37b5b2b760991b606082015260800190565b60208082526022908201527f455243373231413a207175616e7469747920746f206d696e7420746f6f2068696040820152610ced60f31b606082015260800190565b60006001600160801b03828116848216808303821115612a1157612a1161354f565b6000821982111561342b5761342b61354f565b500190565b60008261343f5761343f613565565b500490565b600081600019048311821515161561345e5761345e61354f565b500290565b60006001600160801b03838116908316818110156134835761348361354f565b039392505050565b60008282101561349d5761349d61354f565b500390565b60005b838110156134bd5781810151838201526020016134a5565b838111156116f95750506000910152565b6000816134dd576134dd61354f565b506000190190565b6002810460018216806134f957607f821691505b6020821081141561351a57634e487b7160e01b600052602260045260246000fd5b50919050565b60006000198214156135345761353461354f565b5060010190565b60008261354a5761354a613565565b500690565b634e487b7160e01b600052601160045260246000fd5b634e487b7160e01b600052601260045260246000fd5b634e487b7160e01b600052604160045260246000fd5b6001600160a01b03811681146118e457600080fd5b80151581146118e457600080fd5b6001600160e01b0319811681146118e457600080fdfeddf252ad1be2c89b69c2b068fc378daa952ba7f163c4a11628f55a4df523b3efa2646970667358221220941710711346350225c943c1a944e484eb5f209479275aa6778dc641b68794c964736f6c63430008000033",
  "linkReferences": {},
  "deployedLinkReferences": {}
}