{
  "_format": "hh-sol-artifact-1",
  "contractName": "ERC721A",
  "sourceName": "erc721a/contracts/ERC721A.sol",
  "abi": [
    {
      "inputs": [
        {
          "internalType": "string",
          "name": "name_",
          "type": "string"
        },
        {
          "internalType": "string",
          "name": "symbol_",
          "type": "string"
        },
        {
          "internalType": "uint256",
          "name": "maxBatchSize_",
          "type": "uint256"
        }
      ],
      "stateMutability": "nonpayable",
      "type": "constructor"
    },
    {
      "anonymous": false,
      "inputs": [
        {
          "indexed": true,
          "internalType": "address",
          "name": "owner",
          "type": "address"
        },
        {
          "indexed": true,
          "internalType": "address",
          "name": "approved",
          "type": "address"
        },
        {
          "indexed": true,
          "internalType": "uint256",
          "name": "tokenId",
          "type": "uint256"
        }
      ],
      "name": "Approval",
      "type": "event"
    },
    {
      "anonymous": false,
      "inputs": [
        {
          "indexed": true,
          "internalType": "address",
          "name": "owner",
          "type": "address"
        },
        {
          "indexed": true,
          "internalType": "address",
          "name": "operator",
          "type": "address"
        },
        {
          "indexed": false,
          "internalType": "bool",
          "name": "approved",
          "type": "bool"
        }
      ],
      "name": "ApprovalForAll",
      "type": "event"
    },
    {
      "anonymous": false,
      "inputs": [
        {
          "indexed": true,
          "internalType": "address",
          "name": "from",
          "type": "address"
        },
        {
          "indexed": true,
          "internalType": "address",
          "name": "to",
          "type": "address"
        },
        {
          "indexed": true,
          "internalType": "uint256",
          "name": "tokenId",
          "type": "uint256"
        }
      ],
      "name": "Transfer",
      "type": "event"
    },
    {
      "inputs": [
        {
          "internalType": "address",
          "name": "to",
          "type": "address"
        },
        {
          "internalType": "uint256",
          "name": "tokenId",
          "type": "uint256"
        }
      ],
      "name": "approve",
      "outputs": [],
      "stateMutability": "nonpayable",
      "type": "function"
    },
    {
      "inputs": [
        {
          "internalType": "address",
          "name": "owner",
          "type": "address"
        }
      ],
      "name": "balanceOf",
      "outputs": [
        {
          "internalType": "uint256",
          "name": "",
          "type": "uint256"
        }
      ],
      "stateMutability": "view",
      "type": "function"
    },
    {
      "inputs": [
        {
          "internalType": "uint256",
          "name": "tokenId",
          "type": "uint256"
        }
      ],
      "name": "getApproved",
      "outputs": [
        {
          "internalType": "address",
          "name": "",
          "type": "address"
        }
      ],
      "stateMutability": "view",
      "type": "function"
    },
    {
      "inputs": [
        {
          "internalType": "address",
          "name": "owner",
          "type": "address"
        },
        {
          "internalType": "address",
          "name": "operator",
          "type": "address"
        }
      ],
      "name": "isApprovedForAll",
      "outputs": [
        {
          "internalType": "bool",
          "name": "",
          "type": "bool"
        }
      ],
      "stateMutability": "view",
      "type": "function"
    },
    {
      "inputs": [],
      "name": "name",
      "outputs": [
        {
          "internalType": "string",
          "name": "",
          "type": "string"
        }
      ],
      "stateMutability": "view",
      "type": "function"
    },
    {
      "inputs": [],
      "name": "nextOwnerToExplicitlySet",
      "outputs": [
        {
          "internalType": "uint256",
          "name": "",
          "type": "uint256"
        }
      ],
      "stateMutability": "view",
      "type": "function"
    },
    {
      "inputs": [
        {
          "internalType": "uint256",
          "name": "tokenId",
          "type": "uint256"
        }
      ],
      "name": "ownerOf",
      "outputs": [
        {
          "internalType": "address",
          "name": "",
          "type": "address"
        }
      ],
      "stateMutability": "view",
      "type": "function"
    },
    {
      "inputs": [
        {
          "internalType": "address",
          "name": "from",
          "type": "address"
        },
        {
          "internalType": "address",
          "name": "to",
          "type": "address"
        },
        {
          "internalType": "uint256",
          "name": "tokenId",
          "type": "uint256"
        }
      ],
      "name": "safeTransferFrom",
      "outputs": [],
      "stateMutability": "nonpayable",
      "type": "function"
    },
    {
      "inputs": [
        {
          "internalType": "address",
          "name": "from",
          "type": "address"
        },
        {
          "internalType": "address",
          "name": "to",
          "type": "address"
        },
        {
          "internalType": "uint256",
          "name": "tokenId",
          "type": "uint256"
        },
        {
          "internalType": "bytes",
          "name": "_data",
          "type": "bytes"
        }
      ],
      "name": "safeTransferFrom",
      "outputs": [],
      "stateMutability": "nonpayable",
      "type": "function"
    },
    {
      "inputs": [
        {
          "internalType": "address",
          "name": "operator",
          "type": "address"
        },
        {
          "internalType": "bool",
          "name": "approved",
          "type": "bool"
        }
      ],
      "name": "setApprovalForAll",
      "outputs": [],
      "stateMutability": "nonpayable",
      "type": "function"
    },
    {
      "inputs": [
        {
          "internalType": "bytes4",
          "name": "interfaceId",
          "type": "bytes4"
        }
      ],
      "name": "supportsInterface",
      "outputs": [
        {
          "internalType": "bool",
          "name": "",
          "type": "bool"
        }
      ],
      "stateMutability": "view",
      "type": "function"
    },
    {
      "inputs": [],
      "name": "symbol",
      "outputs": [
        {
          "internalType": "string",
          "name": "",
          "type": "string"
        }
      ],
      "stateMutability": "view",
      "type": "function"
    },
    {
      "inputs": [
        {
          "internalType": "uint256",
          "name": "index",
          "type": "uint256"
        }
      ],
      "name": "tokenByIndex",
      "outputs": [
        {
          "internalType": "uint256",
          "name": "",
          "type": "uint256"
        }
      ],
      "stateMutability": "view",
      "type": "function"
    },
    {
      "inputs": [
        {
          "internalType": "address",
          "name": "owner",
          "type": "address"
        },
        {
          "internalType": "uint256",
          "name": "index",
          "type": "uint256"
        }
      ],
      "name": "tokenOfOwnerByIndex",
      "outputs": [
        {
          "internalType": "uint256",
          "name": "",
          "type": "uint256"
        }
      ],
      "stateMutability": "view",
      "type": "function"
    },
    {
      "inputs": [
        {
          "internalType": "uint256",
          "name": "tokenId",
          "type": "uint256"
        }
      ],
      "name": "tokenURI",
      "outputs": [
        {
          "internalType": "string",
          "name": "",
          "type": "string"
        }
      ],
      "stateMutability": "view",
      "type": "function"
    },
    {
      "inputs": [],
      "name": "totalSupply",
      "outputs": [
        {
          "internalType": "uint256",
          "name": "",
          "type": "uint256"
        }
      ],
      "stateMutability": "view",
      "type": "function"
    },
    {
      "inputs": [
        {
          "internalType": "address",
          "name": "from",
          "type": "address"
        },
        {
          "internalType": "address",
          "name": "to",
          "type": "address"
        },
        {
          "internalType": "uint256",
          "name": "tokenId",
          "type": "uint256"
        }
      ],
      "name": "transferFrom",
      "outputs": [],
      "stateMutability": "nonpayable",
      "type": "function"
    }
  ],
  "bytecode": "0x60a06040526000805560006007553480156200001a57600080fd5b5060405162001ac138038062001ac18339810160408190526200003d91620001f2565b60008111620000695760405162461bcd60e51b8152600401620000609062000262565b60405180910390fd5b82516200007e906001906020860190620000a1565b50815162000094906002906020850190620000a1565b5060805250620002fc9050565b828054620000af90620002a9565b90600052602060002090601f016020900481019282620000d357600085556200011e565b82601f10620000ee57805160ff19168380011785556200011e565b828001600101855582156200011e579182015b828111156200011e57825182559160200191906001019062000101565b506200012c92915062000130565b5090565b5b808211156200012c576000815560010162000131565b600082601f83011262000158578081fd5b81516001600160401b0380821115620001755762000175620002e6565b6040516020601f8401601f19168201810183811183821017156200019d576200019d620002e6565b6040528382528584018101871015620001b4578485fd5b8492505b83831015620001d75785830181015182840182015291820191620001b8565b83831115620001e857848185840101525b5095945050505050565b60008060006060848603121562000207578283fd5b83516001600160401b03808211156200021e578485fd5b6200022c8783880162000147565b9450602086015191508082111562000242578384fd5b50620002518682870162000147565b925050604084015190509250925092565b60208082526027908201527f455243373231413a206d61782062617463682073697a65206d757374206265206040820152666e6f6e7a65726f60c81b606082015260800190565b600281046001821680620002be57607f821691505b60208210811415620002e057634e487b7160e01b600052602260045260246000fd5b50919050565b634e487b7160e01b600052604160045260246000fd5b6080516117a26200031f60003960008181610b500152610b7a01526117a26000f3fe608060405234801561001057600080fd5b50600436106100db5760003560e01c806301ffc9a7146100e057806306fdde0314610109578063081812fc1461011e578063095ea7b31461013e57806318160ddd1461015357806323b872dd146101685780632f745c591461017b57806342842e0e1461018e5780634f6ccce7146101a15780636352211e146101b457806370a08231146101c757806395d89b41146101da578063a22cb465146101e2578063b88d4fde146101f5578063c87b56dd14610208578063d7224ba01461021b578063e985e9c514610223575b600080fd5b6100f36100ee366004611062565b610236565b604051610100919061115e565b60405180910390f35b610111610299565b6040516101009190611169565b61013161012c36600461109a565b61032b565b604051610100919061110d565b61015161014c366004611039565b610377565b005b61015b610410565b60405161010091906115ce565b610151610176366004610ef9565b610416565b61015b610189366004611039565b610421565b61015161019c366004610ef9565b61051c565b61015b6101af36600461109a565b610537565b6101316101c236600461109a565b610563565b61015b6101d5366004610ead565b610575565b6101116105c2565b6101516101f0366004610fff565b6105d1565b610151610203366004610f34565b61069f565b61011161021636600461109a565b6106d8565b61015b61075b565b6100f3610231366004610ec7565b610761565b60006001600160e01b031982166380ac58cd60e01b148061026757506001600160e01b03198216635b5e139f60e01b145b8061028257506001600160e01b0319821663780e9d6360e01b145b8061029157506102918261078f565b90505b919050565b6060600180546102a8906116a7565b80601f01602080910402602001604051908101604052809291908181526020018280546102d4906116a7565b80156103215780601f106102f657610100808354040283529160200191610321565b820191906000526020600020905b81548152906001019060200180831161030457829003601f168201915b5050505050905090565b6000610336826107a8565b61035b5760405162461bcd60e51b815260040161035290611581565b60405180910390fd5b506000908152600560205260409020546001600160a01b031690565b600061038282610563565b9050806001600160a01b0316836001600160a01b031614156103b65760405162461bcd60e51b81526004016103529061144f565b806001600160a01b03166103c86107af565b6001600160a01b031614806103e457506103e4816102316107af565b6104005760405162461bcd60e51b815260040161035290611290565b61040b8383836107b3565b505050565b60005490565b61040b83838361080f565b600061042c83610575565b821061044a5760405162461bcd60e51b81526004016103529061117c565b6000610454610410565b905060008060005b838110156104fd576000818152600360209081526040918290208251808401909352546001600160a01b038116808452600160a01b9091046001600160401b031691830191909152156104ae57805192505b876001600160a01b0316836001600160a01b031614156104ea57868414156104dc5750935061051692505050565b836104e6816116e2565b9450505b50806104f5816116e2565b91505061045c565b5060405162461bcd60e51b8152600401610352906114e4565b92915050565b61040b8383836040518060200160405280600081525061069f565b6000610541610410565b821061055f5760405162461bcd60e51b815260040161035290611208565b5090565b600061056e82610b1f565b5192915050565b60006001600160a01b03821661059d5760405162461bcd60e51b8152600401610352906112e9565b506001600160a01b03166000908152600460205260409020546001600160801b031690565b6060600280546102a8906116a7565b6105d96107af565b6001600160a01b0316826001600160a01b0316141561060a5760405162461bcd60e51b8152600401610352906113c9565b80600660006106176107af565b6001600160a01b03908116825260208083019390935260409182016000908120918716808252919093529120805460ff19169215159290921790915561065b6107af565b6001600160a01b03167f17307eab39ab6107e8899845ad3d59bd9653f200f220920489ca2b5937696c3183604051610693919061115e565b60405180910390a35050565b6106aa84848461080f565b6106b684848484610c31565b6106d25760405162461bcd60e51b815260040161035290611491565b50505050565b60606106e3826107a8565b6106ff5760405162461bcd60e51b81526004016103529061137a565b6000610709610d4d565b905060008151116107295760405180602001604052806000815250610754565b8061073384610d5f565b6040516020016107449291906110de565b6040516020818303038152906040525b9392505050565b60075481565b6001600160a01b03918216600090815260066020908152604080832093909416825291909152205460ff1690565b6001600160e01b031981166301ffc9a760e01b14919050565b6000541190565b3390565b60008281526005602052604080822080546001600160a01b0319166001600160a01b0387811691821790925591518593918516917f8c5be1e5ebec7d5bd14f71427d1e84f3dd0314c0f7b2291e5b200ac8c7c3b92591a4505050565b600061081a82610b1f565b9050600081600001516001600160a01b03166108346107af565b6001600160a01b03161480610869575061084c6107af565b6001600160a01b031661085e8461032b565b6001600160a01b0316145b8061087d5750815161087d906102316107af565b90508061089c5760405162461bcd60e51b8152600401610352906113fd565b846001600160a01b031682600001516001600160a01b0316146108d15760405162461bcd60e51b815260040161035290611334565b6001600160a01b0384166108f75760405162461bcd60e51b81526004016103529061124b565b61090485858560016106d2565b61091460008484600001516107b3565b6001600160a01b03851660009081526004602052604081208054600192906109469084906001600160801b0316611625565b82546101009290920a6001600160801b038181021990931691831602179091556001600160a01b03861660009081526004602052604081208054600194509092610992918591166115d7565b82546001600160801b039182166101009390930a9283029190920219909116179055506040805180820182526001600160a01b0380871682526001600160401b03428116602080850191825260008981526003909152948520935184549151909216600160a01b02600160a01b600160e01b0319929093166001600160a01b03199091161716179055610a268460016115f9565b6000818152600360205260409020549091506001600160a01b0316610ac957610a4e816107a8565b15610ac95760408051808201825284516001600160a01b0390811682526020808701516001600160401b0390811682850190815260008781526003909352949091209251835494516001600160a01b0319909516921691909117600160a01b600160e01b031916600160a01b93909116929092029190911790555b83856001600160a01b0316876001600160a01b03167fddf252ad1be2c89b69c2b068fc378daa952ba7f163c4a11628f55a4df523b3ef60405160405180910390a4610b1786868660016106d2565b505050505050565b610b27610e7f565b610b30826107a8565b610b4c5760405162461bcd60e51b8152600401610352906111be565b60007f00000000000000000000000000000000000000000000000000000000000000008310610bad57610b9f7f00000000000000000000000000000000000000000000000000000000000000008461164d565b610baa9060016115f9565b90505b825b818110610c18576000818152600360209081526040918290208251808401909352546001600160a01b038116808452600160a01b9091046001600160401b03169183019190915215610c05579250610294915050565b5080610c1081611690565b915050610baf565b5060405162461bcd60e51b815260040161035290611532565b6000610c45846001600160a01b0316610e79565b15610d4157836001600160a01b031663150b7a02610c616107af565b8786866040518563ffffffff1660e01b8152600401610c839493929190611121565b602060405180830381600087803b158015610c9d57600080fd5b505af1925050508015610ccd575060408051601f3d908101601f19168201909252610cca9181019061107e565b60015b610d27573d808015610cfb576040519150601f19603f3d011682016040523d82523d6000602084013e610d00565b606091505b508051610d1f5760405162461bcd60e51b815260040161035290611491565b805181602001fd5b6001600160e01b031916630a85bd0160e11b149050610d45565b5060015b949350505050565b60408051602081019091526000815290565b606081610d8457506040805180820190915260018152600360fc1b6020820152610294565b8160005b8115610dae5780610d98816116e2565b9150610da79050600a83611611565b9150610d88565b6000816001600160401b03811115610dd657634e487b7160e01b600052604160045260246000fd5b6040519080825280601f01601f191660200182016040528015610e00576020820181803683370190505b5090505b8415610d4557610e1560018361164d565b9150610e22600a866116fd565b610e2d9060306115f9565b60f81b818381518110610e5057634e487b7160e01b600052603260045260246000fd5b60200101906001600160f81b031916908160001a905350610e72600a86611611565b9450610e04565b3b151590565b604080518082019091526000808252602082015290565b80356001600160a01b038116811461029457600080fd5b600060208284031215610ebe578081fd5b61075482610e96565b60008060408385031215610ed9578081fd5b610ee283610e96565b9150610ef060208401610e96565b90509250929050565b600080600060608486031215610f0d578081fd5b610f1684610e96565b9250610f2460208501610e96565b9150604084013590509250925092565b60008060008060808587031215610f49578081fd5b610f5285610e96565b93506020610f61818701610e96565b93506040860135925060608601356001600160401b0380821115610f83578384fd5b818801915088601f830112610f96578384fd5b813581811115610fa857610fa861173d565b604051601f8201601f1916810185018381118282101715610fcb57610fcb61173d565b60405281815283820185018b1015610fe1578586fd5b81858501868301379081019093019390935250939692955090935050565b60008060408385031215611011578182fd5b61101a83610e96565b91506020830135801515811461102e578182fd5b809150509250929050565b6000806040838503121561104b578182fd5b61105483610e96565b946020939093013593505050565b600060208284031215611073578081fd5b813561075481611753565b60006020828403121561108f578081fd5b815161075481611753565b6000602082840312156110ab578081fd5b5035919050565b600081518084526110ca816020860160208601611664565b601f01601f19169290920160200192915050565b600083516110f0818460208801611664565b835190830190611104818360208801611664565b01949350505050565b6001600160a01b0391909116815260200190565b6001600160a01b0385811682528416602082015260408101839052608060608201819052600090611154908301846110b2565b9695505050505050565b901515815260200190565b60006020825261075460208301846110b2565b60208082526022908201527f455243373231413a206f776e657220696e646578206f7574206f6620626f756e604082015261647360f01b606082015260800190565b6020808252602a908201527f455243373231413a206f776e657220717565727920666f72206e6f6e657869736040820152693a32b73a103a37b5b2b760b11b606082015260800190565b60208082526023908201527f455243373231413a20676c6f62616c20696e646578206f7574206f6620626f756040820152626e647360e81b606082015260800190565b60208082526025908201527f455243373231413a207472616e7366657220746f20746865207a65726f206164604082015264647265737360d81b606082015260800190565b60208082526039908201527f455243373231413a20617070726f76652063616c6c6572206973206e6f74206f6040820152781ddb995c881b9bdc88185c1c1c9bdd995908199bdc88185b1b603a1b606082015260800190565b6020808252602b908201527f455243373231413a2062616c616e636520717565727920666f7220746865207a60408201526a65726f206164647265737360a81b606082015260800190565b60208082526026908201527f455243373231413a207472616e736665722066726f6d20696e636f72726563746040820152651037bbb732b960d11b606082015260800190565b6020808252602f908201527f4552433732314d657461646174613a2055524920717565727920666f72206e6f60408201526e3732bc34b9ba32b73a103a37b5b2b760891b606082015260800190565b6020808252601a908201527922a9219b9918a09d1030b8383937bb32903a379031b0b63632b960311b604082015260600190565b60208082526032908201527f455243373231413a207472616e736665722063616c6c6572206973206e6f74206040820152711bdddb995c881b9bdc88185c1c1c9bdd995960721b606082015260800190565b60208082526022908201527f455243373231413a20617070726f76616c20746f2063757272656e74206f776e60408201526132b960f11b606082015260800190565b60208082526033908201527f455243373231413a207472616e7366657220746f206e6f6e204552433732315260408201527232b1b2b4bb32b91034b6b83632b6b2b73a32b960691b606082015260800190565b6020808252602e908201527f455243373231413a20756e61626c6520746f2067657420746f6b656e206f662060408201526d0deeedccae440c4f240d2dcc8caf60931b606082015260800190565b6020808252602f908201527f455243373231413a20756e61626c6520746f2064657465726d696e652074686560408201526e1037bbb732b91037b3103a37b5b2b760891b606082015260800190565b6020808252602d908201527f455243373231413a20617070726f76656420717565727920666f72206e6f6e6560408201526c3c34b9ba32b73a103a37b5b2b760991b606082015260800190565b90815260200190565b60006001600160801b0382811684821680830382111561110457611104611711565b6000821982111561160c5761160c611711565b500190565b60008261162057611620611727565b500490565b60006001600160801b038381169083168181101561164557611645611711565b039392505050565b60008282101561165f5761165f611711565b500390565b60005b8381101561167f578181015183820152602001611667565b838111156106d25750506000910152565b60008161169f5761169f611711565b506000190190565b6002810460018216806116bb57607f821691505b602082108114156116dc57634e487b7160e01b600052602260045260246000fd5b50919050565b60006000198214156116f6576116f6611711565b5060010190565b60008261170c5761170c611727565b500690565b634e487b7160e01b600052601160045260246000fd5b634e487b7160e01b600052601260045260246000fd5b634e487b7160e01b600052604160045260246000fd5b6001600160e01b03198116811461176957600080fd5b5056fea2646970667358221220f90f3a4c799c02312e9d7dbf320deb0a5557792f9a4002fae3100a5d36a83f8a64736f6c63430008000033",
  "linkReferences": {},
  "deployedLinkReferences": {}
}