{
  "_format": "hh-sol-artifact-1",
  "contractName": "PaymentSplitter",
  "sourceName": "@openzeppelin/contracts/finance/PaymentSplitter.sol",
  "abi": [
    {
      "inputs": [
        {
          "internalType": "address[]",
          "name": "payees",
          "type": "address[]"
        },
        {
          "internalType": "uint256[]",
          "name": "shares_",
          "type": "uint256[]"
        }
      ],
      "stateMutability": "payable",
      "type": "constructor"
    },
    {
      "anonymous": false,
      "inputs": [
        {
          "indexed": true,
          "internalType": "contract IERC20",
          "name": "token",
          "type": "address"
        },
        {
          "indexed": false,
          "internalType": "address",
          "name": "to",
          "type": "address"
        },
        {
          "indexed": false,
          "internalType": "uint256",
          "name": "amount",
          "type": "uint256"
        }
      ],
      "name": "ERC20PaymentReleased",
      "type": "event"
    },
    {
      "anonymous": false,
      "inputs": [
        {
          "indexed": false,
          "internalType": "address",
          "name": "account",
          "type": "address"
        },
        {
          "indexed": false,
          "internalType": "uint256",
          "name": "shares",
          "type": "uint256"
        }
      ],
      "name": "PayeeAdded",
      "type": "event"
    },
    {
      "anonymous": false,
      "inputs": [
        {
          "indexed": false,
          "internalType": "address",
          "name": "from",
          "type": "address"
        },
        {
          "indexed": false,
          "internalType": "uint256",
          "name": "amount",
          "type": "uint256"
        }
      ],
      "name": "PaymentReceived",
      "type": "event"
    },
    {
      "anonymous": false,
      "inputs": [
        {
          "indexed": false,
          "internalType": "address",
          "name": "to",
          "type": "address"
        },
        {
          "indexed": false,
          "internalType": "uint256",
          "name": "amount",
          "type": "uint256"
        }
      ],
      "name": "PaymentReleased",
      "type": "event"
    },
    {
      "inputs": [
        {
          "internalType": "uint256",
          "name": "index",
          "type": "uint256"
        }
      ],
      "name": "payee",
      "outputs": [
        {
          "internalType": "address",
          "name": "",
          "type": "address"
        }
      ],
      "stateMutability": "view",
      "type": "function"
    },
    {
      "inputs": [
        {
          "internalType": "address payable",
          "name": "account",
          "type": "address"
        }
      ],
      "name": "release",
      "outputs": [],
      "stateMutability": "nonpayable",
      "type": "function"
    },
    {
      "inputs": [
        {
          "internalType": "contract IERC20",
          "name": "token",
          "type": "address"
        },
        {
          "internalType": "address",
          "name": "account",
          "type": "address"
        }
      ],
      "name": "release",
      "outputs": [],
      "stateMutability": "nonpayable",
      "type": "function"
    },
    {
      "inputs": [
        {
          "internalType": "contract IERC20",
          "name": "token",
          "type": "address"
        },
        {
          "internalType": "address",
          "name": "account",
          "type": "address"
        }
      ],
      "name": "released",
      "outputs": [
        {
          "internalType": "uint256",
          "name": "",
          "type": "uint256"
        }
      ],
      "stateMutability": "view",
      "type": "function"
    },
    {
      "inputs": [
        {
          "internalType": "address",
          "name": "account",
          "type": "address"
        }
      ],
      "name": "released",
      "outputs": [
        {
          "internalType": "uint256",
          "name": "",
          "type": "uint256"
        }
      ],
      "stateMutability": "view",
      "type": "function"
    },
    {
      "inputs": [
        {
          "internalType": "address",
          "name": "account",
          "type": "address"
        }
      ],
      "name": "shares",
      "outputs": [
        {
          "internalType": "uint256",
          "name": "",
          "type": "uint256"
        }
      ],
      "stateMutability": "view",
      "type": "function"
    },
    {
      "inputs": [
        {
          "internalType": "contract IERC20",
          "name": "token",
          "type": "address"
        }
      ],
      "name": "totalReleased",
      "outputs": [
        {
          "internalType": "uint256",
          "name": "",
          "type": "uint256"
        }
      ],
      "stateMutability": "view",
      "type": "function"
    },
    {
      "inputs": [],
      "name": "totalReleased",
      "outputs": [
        {
          "internalType": "uint256",
          "name": "",
          "type": "uint256"
        }
      ],
      "stateMutability": "view",
      "type": "function"
    },
    {
      "inputs": [],
      "name": "totalShares",
      "outputs": [
        {
          "internalType": "uint256",
          "name": "",
          "type": "uint256"
        }
      ],
      "stateMutability": "view",
      "type": "function"
    },
    {
      "stateMutability": "payable",
      "type": "receive"
    }
  ],
  "bytecode": "0x6080604052604051620011c4380380620011c48339810160408190526200002691620002a8565b8051825114620000535760405162461bcd60e51b81526004016200004a90620003e7565b60405180910390fd5b6000825111620000775760405162461bcd60e51b81526004016200004a9062000484565b60005b8251811015620000fb57620000e6838281518110620000a957634e487b7160e01b600052603260045260246000fd5b6020026020010151838381518110620000d257634e487b7160e01b600052603260045260246000fd5b60200260200101516200010460201b60201c565b80620000f2816200055f565b9150506200007a565b505050620005a9565b6001600160a01b0382166200012d5760405162461bcd60e51b81526004016200004a906200039b565b60008111620001505760405162461bcd60e51b81526004016200004a90620004bb565b6001600160a01b03821660009081526002602052604090205415620001895760405162461bcd60e51b81526004016200004a9062000439565b60048054600181019091557f8a35acfbc15ff81a39ae7d344fd709f28e8600b4aa8c65c6b64bfe7fe36bd19b0180546001600160a01b0319166001600160a01b038416908117909155600090815260026020526040812082905554620001f190829062000544565b6000556040517f40c340f65e17194d14ddddb073d3c9f888e3cb52b5aae0c6c7706b4fbc905fac9062000228908490849062000382565b60405180910390a15050565b600082601f83011262000245578081fd5b815160206200025e62000258836200051e565b620004f2565b82815281810190858301838502870184018810156200027b578586fd5b855b858110156200029b578151845292840192908401906001016200027d565b5090979650505050505050565b60008060408385031215620002bb578182fd5b82516001600160401b0380821115620002d2578384fd5b818501915085601f830112620002e6578384fd5b81516020620002f962000258836200051e565b82815281810190858301838502870184018b101562000316578889fd5b8896505b848710156200034f5780516001600160a01b03811681146200033a57898afd5b8352600196909601959183019183016200031a565b509188015191965090935050508082111562000369578283fd5b50620003788582860162000234565b9150509250929050565b6001600160a01b03929092168252602082015260400190565b6020808252602c908201527f5061796d656e7453706c69747465723a206163636f756e74206973207468652060408201526b7a65726f206164647265737360a01b606082015260800190565b60208082526032908201527f5061796d656e7453706c69747465723a2070617965657320616e6420736861726040820152710cae640d8cadccee8d040dad2e6dac2e8c6d60731b606082015260800190565b6020808252602b908201527f5061796d656e7453706c69747465723a206163636f756e7420616c726561647960408201526a206861732073686172657360a81b606082015260800190565b6020808252601a908201527f5061796d656e7453706c69747465723a206e6f20706179656573000000000000604082015260600190565b6020808252601d908201527f5061796d656e7453706c69747465723a20736861726573206172652030000000604082015260600190565b6040518181016001600160401b038111828210171562000516576200051662000593565b604052919050565b60006001600160401b038211156200053a576200053a62000593565b5060209081020190565b600082198211156200055a576200055a6200057d565b500190565b60006000198214156200057657620005766200057d565b5060010190565b634e487b7160e01b600052601160045260246000fd5b634e487b7160e01b600052604160045260246000fd5b610c0b80620005b96000396000f3fe60806040526004361061007a5760003560e01c806319165587146100c65780633a98ef39146100e8578063406072a91461011357806348b75044146101335780638b83209b146101535780639852595c14610180578063ce7c2ac2146101a0578063d79779b2146101c0578063e33b7de3146101e0576100c1565b366100c1577f6ef95f06320e7a25a04a175ca677b7052bdd97131872c2192525a629f51be7706100a86101f5565b346040516100b7929190610911565b60405180910390a1005b600080fd5b3480156100d257600080fd5b506100e66100e136600461083a565b6101f9565b005b3480156100f457600080fd5b506100fd610310565b60405161010a9190610b00565b60405180910390f35b34801561011f57600080fd5b506100fd61012e366004610876565b610316565b34801561013f57600080fd5b506100e661014e366004610876565b610341565b34801561015f57600080fd5b5061017361016e3660046108ae565b6104f7565b60405161010a91906108fd565b34801561018c57600080fd5b506100fd61019b36600461083a565b610535565b3480156101ac57600080fd5b506100fd6101bb36600461083a565b610550565b3480156101cc57600080fd5b506100fd6101db36600461083a565b61056b565b3480156101ec57600080fd5b506100fd610586565b3390565b6001600160a01b0381166000908152600260205260409020546102375760405162461bcd60e51b815260040161022e9061095d565b60405180910390fd5b6000610241610586565b61024b9047610b09565b90506000610262838361025d86610535565b61058c565b9050806102815760405162461bcd60e51b815260040161022e90610a34565b6001600160a01b038316600090815260036020526040812080548392906102a9908490610b09565b9250508190555080600160008282546102c29190610b09565b909155506102d2905083826105d1565b7fdf20fd1e76bc69d672e4814fafb2c449bba3a5369d8359adf9e05e6fde87b0568382604051610303929190610911565b60405180910390a1505050565b60005490565b6001600160a01b03918216600090815260066020908152604080832093909416825291909152205490565b6001600160a01b0381166000908152600260205260409020546103765760405162461bcd60e51b815260040161022e9061095d565b60006103818361056b565b6040516370a0823160e01b81526001600160a01b038516906370a08231906103ad9030906004016108fd565b60206040518083038186803b1580156103c557600080fd5b505afa1580156103d9573d6000803e3d6000fd5b505050506040513d601f19601f820116820180604052508101906103fd91906108c6565b6104079190610b09565b9050600061041a838361025d8787610316565b9050806104395760405162461bcd60e51b815260040161022e90610a34565b6001600160a01b03808516600090815260066020908152604080832093871683529290529081208054839290610470908490610b09565b90915550506001600160a01b0384166000908152600560205260408120805483929061049d908490610b09565b909155506104ae9050848483610672565b836001600160a01b03167f3be5b7a71e84ed12875d241991c70855ac5817d847039e17a9d895c1ceb0f18a84836040516104e9929190610911565b60405180910390a250505050565b60006004828154811061051a57634e487b7160e01b600052603260045260246000fd5b6000918252602090912001546001600160a01b031692915050565b6001600160a01b031660009081526003602052604090205490565b6001600160a01b031660009081526002602052604090205490565b6001600160a01b031660009081526005602052604090205490565b60015490565b600080546001600160a01b0385168252600260205260408220548391906105b39086610b41565b6105bd9190610b21565b6105c79190610b60565b90505b9392505050565b804710156105f15760405162461bcd60e51b815260040161022e906109fd565b6000826001600160a01b03168260405161060a906108fa565b60006040518083038185875af1925050503d8060008114610647576040519150601f19603f3d011682016040523d82523d6000602084013e61064c565b606091505b505090508061066d5760405162461bcd60e51b815260040161022e906109a3565b505050565b61066d8363a9059cbb60e01b8484604051602401610691929190610911565b60408051601f198184030181529190526020810180516001600160e01b03166001600160e01b0319909316929092179091526000610718826040518060400160405280602081526020017f5361666545524332303a206c6f772d6c6576656c2063616c6c206661696c6564815250856001600160a01b03166107529092919063ffffffff16565b80519091501561066d57808060200190518101906107369190610856565b61066d5760405162461bcd60e51b815260040161022e90610ab6565b60606105c7848460008585610766856107fb565b6107825760405162461bcd60e51b815260040161022e90610a7f565b600080866001600160a01b0316858760405161079e91906108de565b60006040518083038185875af1925050503d80600081146107db576040519150601f19603f3d011682016040523d82523d6000602084013e6107e0565b606091505b50915091506107f0828286610801565b979650505050505050565b3b151590565b606083156108105750816105ca565b8251156108205782518084602001fd5b8160405162461bcd60e51b815260040161022e919061092a565b60006020828403121561084b578081fd5b81356105ca81610bbd565b600060208284031215610867578081fd5b815180151581146105ca578182fd5b60008060408385031215610888578081fd5b823561089381610bbd565b915060208301356108a381610bbd565b809150509250929050565b6000602082840312156108bf578081fd5b5035919050565b6000602082840312156108d7578081fd5b5051919050565b600082516108f0818460208701610b77565b9190910192915050565b90565b6001600160a01b0391909116815260200190565b6001600160a01b03929092168252602082015260400190565b6000602082528251806020840152610949816040850160208701610b77565b601f01601f19169190910160400192915050565b60208082526026908201527f5061796d656e7453706c69747465723a206163636f756e7420686173206e6f2060408201526573686172657360d01b606082015260800190565b6020808252603a908201527f416464726573733a20756e61626c6520746f2073656e642076616c75652c20726040820152791958da5c1a595b9d081b585e481a185d99481c995d995c9d195960321b606082015260800190565b6020808252601d908201527f416464726573733a20696e73756666696369656e742062616c616e6365000000604082015260600190565b6020808252602b908201527f5061796d656e7453706c69747465723a206163636f756e74206973206e6f742060408201526a191d59481c185e5b595b9d60aa1b606082015260800190565b6020808252601d908201527f416464726573733a2063616c6c20746f206e6f6e2d636f6e7472616374000000604082015260600190565b6020808252602a908201527f5361666545524332303a204552433230206f7065726174696f6e20646964206e6040820152691bdd081cdd58d8d9595960b21b606082015260800190565b90815260200190565b60008219821115610b1c57610b1c610ba7565b500190565b600082610b3c57634e487b7160e01b81526012600452602481fd5b500490565b6000816000190483118215151615610b5b57610b5b610ba7565b500290565b600082821015610b7257610b72610ba7565b500390565b60005b83811015610b92578181015183820152602001610b7a565b83811115610ba1576000848401525b50505050565b634e487b7160e01b600052601160045260246000fd5b6001600160a01b0381168114610bd257600080fd5b5056fea2646970667358221220e0b9001df4577c31c0ee99335dd060258bb66bd05c14ef68712e7ba6fae1407f64736f6c63430008000033",
  "linkReferences": {},
  "deployedLinkReferences": {}
}